:100000000C9434000C94A8010C94F7010C9451004A
:100010000C9451000C9451000C9451000C9451001C
:100020000C9451000C9451000C9451000C9453000A
:100030000C9451000C9451000C9451000C945100FC
:100040000C9451000C9451000C9451000C945100EC
:100050000C9451000C9451000C9451000C945100DC
:100060000C9451000C94510011241FBECFEFD8E026
:10007000DEBFCDBF11E0A0E0B1E0E8EAF9E102C0E7
:1000800005900D92AC31B107D9F721E0ACE1B1E0B8
:1000900001C01D92AF31B207E1F70E943B020C9400
:1000A000D20C0C9400001F920F9200905F000F92F0
:1000B00011248F93CF93DF93CDB7DEB781E0809388
:1000C0001C010000DF91CF918F910F9000925F0093
:1000D0000F901F901895CF92DF92EF92FF920F939F
:1000E0001F93CF93DF93CDB7DEB766970FB6F89423
:1000F000DEBF0FBECDBF9E8B8D8B8AE0E0E0F1E0CE
:10010000DE011B9601900D928A95E1F785E08A83C6
:100110008D899E89892B09F4B5C080E599EAABEAFF
:10012000BEE48B839C83AD83BE831982A5C04D89B9
:100130005E8928E631E0429FC001439F900D529FA7
:10014000900D1124CC01A0E0B0E0BC01CD010E94D3
:10015000860BDC01CB0126E636E646EE5DE3BC010C
:10016000CD010E94DE0ADC01CB019C01AD01BC0186
:10017000CD010E946D0ADC01CB016C017D018981FA
:10018000882F90E0880F991F9E012F5F3F4F820FAD
:10019000931F0A96FC0180819181CC01A0E0B0E020
:1001A000BC01CD010E94860BDC01CB019C01AD019D
:1001B000C701B6010E943D0CDC01CB019C01AD01E1
:1001C0006B817C818D819E810E94DE0ADC01CB01E6
:1001D0008F839887A987BA8720E030E040EF51E409
:1001E0006F81788589859A850E94380C1816ACF045
:1001F00020E030E0A9016F81788589859A850E9489
:10020000380C1816B4F58981282F30E08A81882FA0
:1002100090E001972817390761F581E890E03A816D
:100220002981F32FF21B2F2F2860FC01208308E87F
:1002300010E06F81788589859A850E94570BDC01D3
:10024000CB01882F90E0F8019183808384E890E0CF
:10025000FC01118210828D8980931E0185E290E05D
:1002600025E230E0F90120812E7FFC01208300008F
:1002700012C089818F5F898399818A81981708F4D8
:1002800056CF09C085E290E025E230E0F9012081F7
:100290002160FC012083000066960FB6F894DEBF53
:1002A0000FBECDBFDF91CF911F910F91FF90EF90C7
:1002B000DF90CF900895CF93DF93CDB7DEB784E280
:1002C00090E024E230E0F90120812160FC012083EC
:1002D00084E290E024E230E0F90120812460FC0116
:1002E000208384E290E024E230E0F9012081226062
:1002F000FC01208385E290E025E230E0F9012081D5
:100300002160FC01208380E890E020E4FC01208350
:1003100081E890E0FC01108282E890E02FEFFC0180
:10032000208388E890E0FC011182108284E890E04C
:10033000FC011182108285E290E025E230E0F901B3
:1003400020812B7FFC0120830000DF91CF91089555
:100350001F920F9200905F000F9211242F933F93F2
:100360004F935F936F937F938F939F93AF93BF93BD
:10037000EF93FF93CF93DF93CDB7DEB780E090E0AC
:100380000E946B008AE091E0892F8F938AE091E0D0
:100390008F930E94F3070F900F9088E890E0FC0184
:1003A00080819181292F2F938F9388E191E0892F6C
:1003B0008F9388E191E08F930E94F3070F900F9045
:1003C0000F900F900000DF91CF91FF91EF91BF91BF
:1003D000AF919F918F917F916F915F914F913F91DD
:1003E0002F910F9000925F000F901F9018951F9211
:1003F0000F9200905F000F9211242F933F934F9321
:100400005F936F937F938F939F93AF93BF93EF937C
:10041000FF93CF93DF93CDB7DEB789E290E0FC0185
:100420008081882F90E080719927892B41F08091FD
:100430001E01882F90E001970E946B0007C08091F9
:100440001E01882F90E001960E946B000000DF9152
:10045000CF91FF91EF91BF91AF919F918F917F913C
:100460006F915F914F913F912F910F9000925F009C
:100470000F901F901895CF93DF9300D0CDB7DEB7C4
:1004800084E290E0FC01108287E290E0FC0110829F
:100490008AE290E0FC01108285E290E0FC0110828B
:1004A00088E290E0FC0110828BE290E0FC01108277
:1004B0000E945B0178941A82198287EB90E00E9477
:1004C0006B00FFCFCF93DF931F92CDB7DEB7898349
:1004D0008981882F90E088709927892B51F088E2D4
:1004E00090E028E230E0F90120812160FC012083C6
:1004F00009C088E290E028E230E0F90120812E7FF7
:10050000FC0120838981882F90E084709927892BB2
:1005100051F088E290E028E230E0F9012081226089
:10052000FC01208309C088E290E028E230E0F90174
:1005300020812D7FFC0120838981882F90E08270AB
:100540009927892B51F088E290E028E230E0F90108
:1005500020812460FC01208309C088E290E028E229
:1005600030E0F90120812B7FFC0120838981882FD5
:1005700090E081709927892B51F088E290E028E281
:1005800030E0F90120812860FC01208309C088E265
:1005900090E028E230E0F9012081277FFC012083F0
:1005A00000000F90DF91CF910895CF93DF93CDB7E7
:1005B000DEB76D970FB6F894DEBF0FBECDBF8D8F3F
:1005C0008D8D82958F700E94620288E290E028E211
:1005D00030E0F90120812061FC01208380E090E07F
:1005E000A0E0B0E489839A83AB83BC8320E030E849
:1005F0004BEB55E469817A818B819C810E943D0C93
:10060000DC01CB018B8B9C8BAD8BBE8B20E030E073
:1006100040E85FE36B897C898D899E890E94D90AB5
:1006200088232CF481E090E0988F8F8B3FC020E0EE
:100630003FEF4FE757E46B897C898D899E890E9443
:10064000380C18164CF520E030E040E251E46981A6
:100650007A818B819C810E943D0CDC01CB01BC0125
:10066000CD010E94570BDC01CB01988F8F8B0FC0FF
:1006700088E592E09A8F898F898D9A8D0197F1F79D
:100680009A8F898F8F89988D0197988F8F8B8F89FB
:10069000988D892B69F714C06B897C898D899E8917
:1006A0000E94570BDC01CB01988F8F8B8F89988D1F
:1006B0009C8F8B8F8B8D9C8D0197F1F79C8F8B8FEF
:1006C00088E290E028E230E0F90120812F7EFC01F1
:1006D00020838D8D0E94620288E290E028E230E063
:1006E000F90120812061FC01208380E090E0A0E0FE
:1006F000B0E48D839E83AF83B88720E030E84BEB76
:1007000055E46D817E818F8198850E943D0CDC01CE
:10071000CB0189879A87AB87BC8720E030E040E82F
:100720005FE369857A858B859C850E94D90A882339
:100730002CF481E090E09E878D873FC020E03FEF62
:100740004FE757E469857A858B859C850E94380C34
:1007500018164CF520E030E040E251E46D817E81D6
:100760008F8198850E943D0CDC01CB01BC01CD013D
:100770000E94570BDC01CB019E878D870FC088E557
:1007800092E0988B8F878F8598890197F1F7988BE6
:100790008F878D859E8501979E878D878D859E8508
:1007A000892B69F714C069857A858B859C850E94A1
:1007B000570BDC01CB019E878D878D859E859A8B9B
:1007C000898B89899A890197F1F79A8B898B88E2BD
:1007D00090E028E230E0F90120812F7EFC012083A7
:1007E00000006D960FB6F894DEBF0FBECDBFDF914F
:1007F000CF910895CF93DF93CDB7DEB7C154D10920
:100800000FB6F894DEBF0FBECDBF9E012F5B3F4FEA
:10081000F901808388E290E028E230E0F90120814C
:100820002062FC012083CE018F5B9F4FFC01808101
:1008300082958F700E94620288E290E028E230E0A8
:10084000F90120812061FC01208380E090E0A0E29A
:10085000B2E489839A83AB83BC8320E030E040E03C
:1008600051E469817A818B819C810E943D0CDC017D
:10087000CB018DA39EA3AFA3B8A720E030E040EC4E
:1008800050E469817A818B819C810E943D0CDC015E
:10089000CB0189A79AA7ABA7BCA720E030E040E82E
:1008A0005FE36DA17EA18FA198A50E94D90A88233C
:1008B0001CF481E08DA7B2C020E03FEF4FE757E482
:1008C00069A57AA58BA59CA50E94380C18160CF07A
:1008D0007BC020E030E04AE754E469817A818B8173
:1008E0009C810E94DE0ADC01CB018EA79FA7A8ABEA
:1008F000B9AB20E030E84BEB55E46EA57FA588A9A5
:1009000099A90E943D0CDC01CB018AAB9BABACAB3F
:10091000BDAB20E030E040E85FE36AA97BA98CA989
:100920009DA90E94D90A88232CF481E090E09FAB16
:100930008EAB3FC020E03FEF4FE757E46AA97BA9A9
:100940008CA99DA90E94380C18164CF520E030E0C7
:1009500040E251E46EA57FA588A999A90E943D0CAB
:10096000DC01CB01BC01CD010E94570BDC01CB01A6
:100970009FAB8EAB0FC088E592E099AF88AF88AD92
:1009800099AD0197F1F799AF88AF8EA99FA901970B
:100990009FAB8EAB8EA99FA9892B69F73FC06AA92F
:1009A0007BA98CA99DA90E94570BDC01CB019FABB1
:1009B0008EAB8EA99FA99BAF8AAF8AAD9BAD0197E5
:1009C000F1F79BAF8AAF2AC020E030E04FE753E455
:1009D0006DA17EA18FA198A50E94380C1816ACF4C9
:1009E00069A57AA58BA59CA50E94570BDC01CB01BC
:1009F0009DAF8CAF8CAD9DAD9FAF8EAF8EAD9FADDB
:100A00000197F1F79FAF8EAF1CC06DA17EA18FA1A2
:100A100098A50E94570BDC01CB018DA72DA5CE0117
:100A2000805C9F4FFC012083CE01805C9F4FFC01C6
:100A30008081282F2A95F1F7CE01805C9F4FFC0121
:100A4000208388E290E028E230E0F90120812F7EC7
:100A5000FC012083CE018F5B9F4FFC0180810E94AF
:100A6000620288E290E028E230E0F9012081206112
:100A7000FC01208380E090E0A0E2B2E48D839E83BD
:100A8000AF83B88720E030E040E051E46D817E81A3
:100A90008F8198850E943D0CDC01CB0189879A8764
:100AA000AB87BC8720E030E040EC50E46D817E8174
:100AB0008F8198850E943D0CDC01CB018D879E873C
:100AC000AF87B88B20E030E040E85FE369857A8546
:100AD0008B859C850E94D90A88231CF481E0898B30
:100AE000B2C020E03FEF4FE757E46D857E858F85EC
:100AF00098890E94380C18160CF07BC020E030E07A
:100B00004AE754E46D817E818F8198850E94DE0AD8
:100B1000DC01CB018A8B9B8BAC8BBD8B20E030E85A
:100B20004BEB55E46A897B898C899D890E943D0C39
:100B3000DC01CB018E8B9F8BA88FB98F20E030E03A
:100B400040E85FE36E897F89888D998D0E94D90A7C
:100B500088232CF481E090E09B8F8A8F3FC020E0B7
:100B60003FEF4FE757E46E897F89888D998D0E940A
:100B7000380C18164CF520E030E040E251E46A8968
:100B80007B898C899D890E943D0CDC01CB01BC01D5
:100B9000CD010E94570BDC01CB019B8F8A8F0FC0C8
:100BA00088E592E09D8F8C8F8C8D9D8D0197F1F75C
:100BB0009D8F8C8F8A8D9B8D01979B8F8A8F8A8DBD
:100BC0009B8D892B69F73FC06E897F89888D998DB0
:100BD0000E94570BDC01CB019B8F8A8F8A8D9B8DE6
:100BE0009F8F8E8F8E8D9F8D0197F1F79F8F8E8FA8
:100BF0002AC020E030E04FE753E469857A858B8591
:100C00009C850E94380C1816ACF46D857E858F8506
:100C100098890E94570BDC01CB0199A388A388A176
:100C200099A19BA38AA38AA19BA10197F1F79BA3FA
:100C30008AA30FC069857A858B859C850E94570B96
:100C4000DC01CB01898B89898CA38CA18A95F1F772
:100C50008CA388E290E028E230E0F90120812F7E29
:100C6000FC01208388E290E028E230E0F901208155
:100C70002F7DFC0120830000CF5BDF4F0FB6F8947F
:100C8000DEBF0FBECDBFDF91CF910895CF93DF932D
:100C90001F92CDB7DEB7898389818A3018F48981A4
:100CA000805D02C08981895C0F90DF91CF910895AA
:100CB000CF93DF9300D000D000D0CDB7DEB79E83B6
:100CC0008D831A8219821CC08D819E81892F99275C
:100CD00082958F709C838B838D819E818295929566
:100CE000907F9827807F98279E838D838B810E9499
:100CF00046060E94FA0389819A8101969A83898324
:100D000089819A81049700F3000026960FB6F89423
:100D1000DEBF0FBECDBFDF91CF910895CF93DF939C
:100D2000CDB7DEB76B970FB6F894DEBF0FBECDBF61
:100D30009F8B8E8B688F498F3B8F2A8F8E899F89DF
:100D40009D838C8380E18A8381E08B83888D8823D7
:100D500049F08E899F89992314F08BE201C08DE2BE
:100D60000E94FA03898D882309F01B828A8D9B8D4E
:100D7000992314F08A8D8A838E899F8999231CF484
:100D80009195819591099F8B8E8B198220C08981C5
:100D9000282F880F330B8E899F894AE050E0BA01D3
:100DA0000E94AA0C40E3480FCE010696820F931FC3
:100DB000FC0140838E899F892AE030E0B9010E94BE
:100DC000AA0CCB019F8B8E8B89818F5F8983998140
:100DD0008A819817E4F28981815089833DC0898195
:100DE000082E000C990B9E012A5F3F4F820F931F24
:100DF000FC0180818033E9F48B818823D1F08A8DD6
:100E00009B8D019629F18C819D81892B71F48981BB
:100E1000082E000C990B9C012F5F3F4F8A81082EF2
:100E2000000C990B2817390799F080E20E94FA0309
:100E30000FC01B828981082E000C990B9E012A5F2E
:100E40003F4F820F931FFC0180810E94FA0301C073
:100E50000000898181508983898188230CF0BFCF6C
:100E60008B81882319F080E30E94FA0300006B96BF
:100E70000FB6F894DEBF0FBECDBFDF91CF910895BE
:100E8000EF92FF920F931F93CF93DF93CDB7DEB70F
:100E900061970FB6F894DEBF0FBECDBF6887798724
:100EA0008A879B874C872D871F870E87F98AE88A58
:100EB0008BE28B8388899989019621F483E090E005
:100EC000998B888B20E030E0A901688579858A8537
:100ED0009B850E94D90A88235CF488859985AA8518
:100EE000BB85B05888879987AA87BB878DE28B839B
:100EF000688579858A859B850E94500BDC01CB0132
:100F00009D838C838C819D81092E000CAA0BBB0BC9
:100F1000BC01CD010E94880BDC01CB019C01AD011D
:100F2000688579858A859B850E946C0ADC01CB01E6
:100F300088879987AA87BB871A82198215C020E003
:100F400030E040E251E4688579858A859B850E947E
:100F50003D0CDC01CB0188879987AA87BB878981F3
:100F60009A8101969A83898329813A81888999890E
:100F70002817390724F3688579858A859B850E941F
:100F8000500BDC01CB019F838E838B818D3231F43A
:100F90008C819D8191958195910902C08C819D8163
:100FA0009D838C832E853F858C819D814D856C85AD
:100FB0000E948E068CE20E94FA03288939898E816C
:100FC0009F8140E360E00E948E06000061960FB6AC
:100FD000F894DEBF0FBECDBFDF91CF911F910F916F
:100FE000FF90EF900895EF92FF920F931F93CF938E
:100FF000DF93CDB7DEB72F970FB6F894DEBF0FBEE5
:10100000CDBF1B821C821D828FEF9FEF9F838E833B
:101010008FEF9FEF99878887CE014A969F878E87AB
:10102000198240C28981882F90E0288D398D820FE6
:10103000931FFC0180818C3049F410921D0181E0E6
:101040000E94D50280E80E94D50229C28981882F9A
:1010500090E0288D398D820F931FFC0180818A30AA
:1010600089F480911D01882331F010921D0180E8E0
:101070000E94D50214C281E080931D0180EC0E9481
:10108000D5020DC28981882F90E0288D398D820F7D
:10109000931FFC0180818D3061F480911D018823B4
:1010A00021F080EC0E94D502FAC180E80E94D502AE
:1010B000F6C18981882F90E0288D398D820F931F8A
:1010C000FC018081893069F480E20E94FA0380E2A9
:1010D0000E94FA0380E20E94FA0380E20E94FA036F
:1010E000DEC18981882F90E0288D398D820F931F72
:1010F000FC0180818C3521F484EA0E94FA03CFC17F
:101100008981882F90E0288D398D820F931FFC01F3
:101110008081853209F0B8C18981882F90E00196DD
:10112000288D398D820F931FFC018081853239F41F
:1011300089818F5F898385E20E94FA03B0C189812A
:101140008F5F8A83B5C08A81882F90E0288D398D82
:10115000820F931FFC0180818B3259F08A81882F86
:1011600090E0288D398D820F931FFC0180818D3294
:1011700019F48BE28B8399C08A81882F90E0288DA7
:10118000398D820F931FFC0180818E3219F48CE21D
:101190008D838BC08A81882F90E0288D398D820FB6
:1011A000931FFC0180818033D1F48D818823A1F4C9
:1011B0008C81803371F48E819F81880F991F9C01EF
:1011C000220F331F220F331F820F931F9F838E83A3
:1011D0006CC080E38C8369C01986188666C08A81DA
:1011E000882F90E0288D398D820F931FFC0180811C
:1011F000813308F45AC08A81882F90E0288D398D78
:10120000820F931FFC0180818A3308F04EC08D81CC
:101210008C3231F588859985019611F419861886E6
:1012200088859985880F991F9C01220F331F220FF3
:10123000331F820F931F998788878A81882F90E0B8
:10124000288D398D820F931FFC018081882F90E0BB
:10125000C09728853985820F931F9987888725C075
:101260008E819F81019611F41F821E828E819F8143
:10127000880F991F9C01220F331F220F331F820FEB
:10128000931F9F838E838A81882F90E0288D398DCC
:10129000820F931FFC018081882F90E0C0972E81E0
:1012A0003F81820F931F9F838E838A818F5F8A8302
:1012B0008A81882F90E0288D398D820F931FFC0141
:1012C0008081833669F18A81882F90E0288D398D5D
:1012D000820F931FFC018081883411F18A81882F4D
:1012E00090E0288D398D820F931FFC018081843618
:1012F000B9F08A81882F90E0288D398D820F931F55
:10130000FC018081863661F08A81882F90E0288DEB
:10131000398D820F931FFC018081833709F013CF31
:101320008A8189838A81882F90E0288D398D820F68
:10133000931FFC018081833669F48E859F859C0113
:101340002E5F3F4F3F872E87FC01808191810E9455
:10135000FA038EC08A81882F90E0288D398D820F04
:10136000931FFC018081883469F48E859F859C01E0
:101370002E5F3F4F3F872E87FC01808191810E9425
:10138000580676C08A81882F90E0288D398D820F8B
:10139000931FFC0180818436A9F48E859F859C0172
:1013A0002E5F3F4F3F872E87FC01808191819B8775
:1013B0008A872E813F818A859B854C816B810E9423
:1013C0008E0656C08A81882F90E0288D398D820F35
:1013D000931FFC0180818636C9F48E859F859C0110
:1013E0002C5F3F4F3F872E87FC0180819181A28136
:1013F000B381488559852E813F817A0189012C81ED
:101400004B81BC01CD010E94400732C08A81882FE8
:1014100090E0288D398D820F931FFC0180818337E6
:1014200039F58E859F859C012E5F3F4F3F872E8724
:10143000FC01808191819D878C871A820EC08A81F0
:10144000882F90E02C853D85820F931FFC018081C1
:101450000E94FA038A818F5F8A838A81882F90E0B5
:101460002C853D85820F931FFC018081882339F7ED
:101470001B821C821D828FEF9FEF9F838E838FEFD5
:101480009FEF998788870BC08981882F90E0288DEE
:10149000398D820F931FFC0180810E94FA0389819C
:1014A0008F5F89838981882F90E0288D398D820F05
:1014B000931FFC018081882309F0B4CD00002F9692
:1014C0000FB6F894DEBF0FBECDBFDF91CF911F9155
:1014D0000F91FF90EF9008955058BB27AA270E94C4
:1014E000840A0C94FE0B0E94F00B38F00E94F70B5C
:1014F00020F039F49F3F19F426F40C94ED0B0EF410
:10150000E095E7FB0C94E70BE92F0E940F0C58F3D2
:10151000BA17620773078407950720F079F4A6F5D8
:101520000C94310C0EF4E0950B2EBA2FA02D0B016C
:10153000B90190010C01CA01A0011124FF27591B18
:1015400099F0593F50F4503E68F11A16F040A22F1E
:10155000232F342F4427585FF3CF4695379527958F
:10156000A795F0405395C9F77EF41F16BA0B620B8E
:10157000730B840BBAF09150A1F0FF0FBB1F661FD5
:10158000771F881FC2F70EC0BA0F621F731F841F18
:1015900048F4879577956795B795F7959E3F08F03E
:1015A000B0CF9395880F08F09927EE0F9795879500
:1015B00008950E94C30B08F481E008950E94F20A86
:1015C0000C94FE0B0E94F70B58F00E94F00B40F0B9
:1015D00029F45F3F29F00C94E70B51110C94320C65
:1015E0000C94ED0B0E940F0C68F39923B1F3552373
:1015F00091F3951B550BBB27AA2762177307840726
:1016000038F09F5F5F4F220F331F441FAA1FA9F3BB
:1016100035D00E2E3AF0E0E832D091505040E695A9
:10162000001CCAF72BD0FE2F29D0660F771F881F0A
:10163000BB1F261737074807AB07B0E809F0BB0BFD
:10164000802DBF01FF2793585F4F3AF09E3F510511
:1016500078F00C94E70B0C94320C5F3FE4F3983E67
:10166000D4F3869577956795B795F7959F5FC9F7FA
:10167000880F911D9695879597F90895E1E0660F7B
:10168000771F881FBB1F621773078407BA0720F0F4
:10169000621B730B840BBA0BEE1F88F7E09508955D
:1016A0000E94570B6894B1110C94320C08950E945B
:1016B000170C88F09F5798F0B92F9927B751B0F0C1
:1016C000E1F0660F771F881F991F1AF0BA95C9F7C6
:1016D00014C0B13091F00E94310CB1E008950C9427
:1016E000310C672F782F8827B85F39F0B93FCCF3DA
:1016F000869577956795B395D9F73EF49095809543
:10170000709561957F4F8F4F9F4F0895E89409C062
:1017100097FB3EF490958095709561957F4F8F4F24
:101720009F4F9923A9F0F92F96E9BB279395F6953A
:10173000879577956795B795F111F8CFFAF4BB0FB8
:1017400011F460FF1BC06F5F7F4F8F4F9F4F16C01C
:10175000882311F096E911C0772321F09EE8872FA6
:10176000762F05C0662371F096E8862F70E060E062
:101770002AF09A95660F771F881FDAF7880F9695DB
:10178000879597F90895990F0008550FAA0BE0E87F
:10179000FEEF16161706E807F907C0F01216130633
:1017A000E407F50798F0621B730B840B950B39F473
:1017B0000A2661F0232B242B252B21F408950A26D9
:1017C00009F4A140A6958FEF811D811D089597F919
:1017D0009F6780E870E060E008959FEF80EC0895D7
:1017E00000240A9416161706180609060895002400
:1017F0000A9412161306140605060895092E03947A
:10180000000C11F4882352F0BB0F40F4BF2B11F4ED
:1018100060FF04C06F5F7F4F8F4F9F4F089557FD4C
:101820009058440F551F59F05F3F71F04795880F4E
:1018300097FB991F61F09F3F79F0879508951216E5
:1018400013061406551FF2CF4695F1DF08C0161691
:1018500017061806991FF1CF869571056105089442
:101860000895E894BB2766277727CB0197F9089559
:101870000E94C30B08F48FEF08950E94500C0C9443
:10188000FE0B0E94F00B38F00E94F70B20F095231E
:1018900011F00C94E70B0C94ED0B11240C94320C0A
:1018A0000E940F0C70F3959FC1F3950F50E0551FE8
:1018B000629FF001729FBB27F00DB11D639FAA27A5
:1018C000F00DB11DAA1F649F6627B00DA11D661FF4
:1018D000829F2227B00DA11D621F739FB00DA11D15
:1018E000621F839FA00D611D221F749F3327A00DCF
:1018F000611D231F849F600D211D822F762F6A2F6B
:1019000011249F5750409AF0F1F088234AF0EE0FCF
:10191000FF1FBB1F661F771F881F91505040A9F7FC
:101920009E3F510580F00C94E70B0C94320C5F3F06
:10193000E4F3983ED4F3869577956795B795F79538
:10194000E7959F5FC1F7FE2B880F911D96958795B0
:1019500097F9089597FB072E16F4009407D077FDAA
:1019600009D00E94BE0C07FC05D03EF490958195ED
:101970009F4F0895709561957F4F0895AA1BBB1BDB
:1019800051E107C0AA1FBB1FA617B70710F0A61B7F
:10199000B70B881F991F5A95A9F780959095BC01A0
:0819A000CD010895F894FFCF7A
:1019A800000400014000080001000C41686F6A2033
:0C19B8007376657465210A002564000048
:00000001FF
