S01A00006B6F6B795F656E67696E655F6472697665722E737265638C
S11300000C9434000C9453000C947A000C9451001A
S11300100C9451000C9451000C9451000C94510018
S11300200C9451000C9418040C9451000C94C603C5
S11300300C9451000C9451000C9451000C945100F8
S11300400C9451000C9451000C9451000C945100E8
S11300500C9451000C9451000C9451000C945100D8
S11300600C9451000C94510011241FBECFEFD8E022
S1130070DEBFCDBF12E0A0E0B1E0E4E6F6E102C0ED
S113008005900D92AC34B107D9F722E0ACE4B2E0AC
S113009001C01D92AC35B207E1F70E94B5000C9483
S11300A0300B0C9400001F920F920FB60F92112484
S11300B02F933F934F935F936F937F938F939F936C
S11300C0AF93BF93EF93FF930E94D70082E60E9401
S11300D00401FF91EF91BF91AF919F918F917F9117
S11300E06F915F914F913F912F910F900FBE0F90A1
S11300F01F9018951F920F920FB60F9211242F93F1
S11301003F934F935F936F937F938F939F93AF939B
S1130110BF93EF93FF930E94D7004C9B04C08DE2E2
S11301200E94040103C08BE20E940401FF91EF913D
S1130130BF91AF919F918F917F916F915F914F91FB
S11301403F912F910F900FBE0F901F9018955A9AC0
S1130150E9E6F0E082E0808381E08DBB5C9A5B9A03
S1130160808188608083E99A089514B817B81AB812
S113017015B818B81BB80E94BE070E94A7000E94B9
S11301808D0478940E94F00083E70E940401FFCF5D
S113019088E080938100109280008DE89BE5909325
S11301A089008093880082E080936F000895109204
S11301B05302109254021092550210925602109259
S11301C0B20008951092B00085E08093B1008FEFE3
S11301D08093B30081E0809370000E94D70008955B
S11301E0EFE4F2E08AE19EE09183808388EC90E082
S11301F09383828310924E0281E080935B020E947B
S1130200C8000E94E2000895CF93DF9390914E02BC
S1130210913009F455C038F0923009F4AEC09330EF
S113022009F4D0C0F4C08D3229F0823659F08B32F3
S113023009F0EDC081E090914D02911180E080932E
S11302404D02F2C080914D02811136C080915B0253
S11302508130C9F410925B02E7E5F2E0AFE4B2E06A
S11302608D919C9111979183808312966D917C91CD
S113027013977383628380E090E00E9468088DE0A6
S113028080938100C4C081E080935B02CFE4D2E01C
S113029060E070E08A819B810E94680888E0809316
S11302A08100E7E5F2E080819181998388838281EE
S11302B093819B838A83ABC081E080934E0284C187
S11302C08D32E1F0823689F18B3209F0A0C0809141
S11302D04C02813041F018F0823049F00CC081E0CA
S11302E080934C024AC282E080934C0246C283E06F
S11302F080934C0242C210924C0242C280914C0242
S1130300813041F018F0823041F00BC083E08093DB
S11303104C0233C210924C0233C281E080934C02EF
S11303202CC282E080934C0228C280914C0281301E
S113033081F018F08230C9F01CC082E080934E0234
S1130340809151029091520290935A0280935902E3
S113035090C183E080934E0280914F0290915002AD
S11303609093580280935702B1C184E080934E0267
S11303700AC285E080934E0206C28D3299F082361D
S1130380F1F08B3209F043C08091510290915202F6
S1130390883C910508F06DC10196909352028093B8
S11303A0510267C18091510290915202009709F461
S11303B060C1019790935202809351025AC11092E6
S11303C04E0232C08D3299F08236F1F08B32F9F45C
S11303D080914F0290915002803A2CE8920708F0E5
S11303E075C1CC969093500280934F026FC1809157
S11303F04F0290915002009709F468C1CC979093F2
S1130400500280934F0262C110924E020DC080913F
S11304104E02813009F4D8C038F0823009F429C181
S1130420833009F0B0C152C180914F0290915002C3
S113043080312EE09207E8F160E17EE00E94F90A43
S1130440E62FF72FAC019C01A9E8B8E80E94210B24
S113045096958795929582958F7089279F708927A5
S11304606CE3689F9001699F300D1124CA01821BBF
S1130470930B9F938F939A010E94210B96958795D6
S1130480929582958F7089279F7089279F938F9368
S1130490FF93EF938BE091E09F938F930E9440062C
S11304A08DB79EB708960FB6F8949EBF0FBE8DBF4A
S11304B036C060E17EE00E94F90AAC019C01A9E823
S11304C0B8E80E94210B96958795929582958F7036
S11304D089279F7089276CE3689F9001699F300D7D
S11304E01124CA01821B930B9F938F939A010E943C
S11304F0210B96958795929582958F7089279F7089
S113050089279F938F9386E291E09F938F930E9414
S113051040060F900F900F900F900F900F90EFE404
S1130520F2E083818F9382818F938FE391E09F9395
S11305308F930E9440060F900F900F900F90809120
S11305405B028130B1F480914D02882319F080E27E
S113055090E002C08EE390E09F938F9384E591E056
S11305609F938F930E9440060F900F900F900F90CF
S113057015C080914D02882319F080E290E002C0FA
S11305808EE390E09F938F938DE591E09F938F93FB
S11305900E9440060F900F900F900F9080914D0293
S11305A0813019F080E290E002C08EE390E09F93E6
S11305B08F9385E691E09F938F930E9440060F905E
S11305C00F900F900F90DFC080914C02882319F098
S11305D090E280E002C09EE380E08F939F938DE6DB
S11305E091E09F938F930E9440060F900F900F907D
S11305F00F9080914C02813019F080E290E002C0AB
S11306008EE390E09F938F9381E891E09F938F9383
S11306100E9440060F900F900F900F9080914C0213
S1130620823019F080E290E002C08EE390E09F9364
S11306308F9382E991E09F938F930E9440060F90DD
S11306400F900F900F9080914C02833019F080E24C
S113065090E002C08EE390E09F938F9383EA91E051
S11306609F938F930E9440060F900F900F900F90CE
S11306708AC084EB91E09F938F930E94400686EC9E
S113068091E09F938F930E944006E7E5F2E0838117
S11306908F9382818F9381ED91E09F938F930E943A
S11306A04006EFE4F2E083818F9382818F9384EE9E
S11306B091E09F938F930E9440068DB79EB70C964E
S11306C00FB6F8949EBF0FBE8DBF5DC087EF91E05B
S11306D09F938F930E94400688E092E09F938F93AC
S11306E00E9440068091570290915802C0E1DEE0DA
S11306F0BE010E94F90A462F572F9C01A9E8B8E8C9
S11307000E94210B96958795929582958F708927E3
S11307109F7089279F938F935F934F9389E192E012
S11307209F938F930E94400680914F0290915002B4
S1130730BE010E94F90A462F572F9C01A9E8B8E888
S11307400E94210B96958795929582958F708927A3
S11307509F7089279F938F935F934F9382E392E0D7
S11307609F938F930E9440068DB79EB740960FB615
S1130770F8949EBF0FBE8DBF06C090E280E02DCFDF
S11307809EE380E02ACFDF91CF9108951F920F92CC
S11307900FB60F9211242F933F934F935F936F9350
S11307A07F938F939F93AF93BF93CF93DF93EF93F5
S11307B0FF9380915B02811128C080914F02909138
S11307C05002009739F001979093500280934F02A2
S11307D0892BC1F4CFE4D2E060E070E08A819B8190
S11307E00E94680888E08093810081E080935B0226
S11307F0E7E5F2E080819181998388838281938106
S11308009B838A8383E70E940401FF91EF91DF9128
S1130810CF91BF91AF919F918F917F916F915F9194
S11308204F913F912F910F900FBE0F901F901895ED
S11308301F920F920FB60F9211242F933F934F9351
S11308405F936F937F938F939F93AF93BF93EF9334
S1130850FF938091530290915402A0915502B0915C
S113086056020196A11DB11D809353029093540228
S1130870A0935502B09356028A3E9A42A105B1054F
S113088059F40E94D70080914E02882329F01092D7
S11308904E0283E70E940401FF91EF91BF91AF9153
S11308A09F918F917F916F915F914F913F912F9184
S11308B00F900FBE0F901F90189583FF02C0409AAF
S11308C001C0409882FF02C0419A01C0419881FF53
S11308D002C0429A01C0429880FF02C0439A089520
S11308E043980895CF93C82F82958F700E945D041A
S11308F0449A8FE496E40197F1F700C0000044980D
S11309008C2F0E945D04449A8FE496E40197F1F7DA
S113091000C000004498CF9108953D9A45983C9AB0
S11309204498389A399A3A9A3B9A4098419842980E
S1130930439882E090E00E945D04449A8FED9EE229
S11309400197F1F700C00000449888E20E94720405
S11309508CE00E94720481E00E94720480E80E948C
S113096072040895CF93C82F459A82958F700E9480
S11309705D04449A8FEE90E00197F1F700C0000007
S113098044988C2F0E945D04449A8FEE90E0019766
S1130990F1F700C0000044984598CF9108958A303B
S11309A010F4805D0895895C08950F931F93CF938D
S11309B0DF938C01C4E0D0E0812F82958F70029583
S11309C01295107F1027007F10270E94CF040E94E9
S11309D0B204219789F7DF91CF911F910F91089568
S11309E09F92AF92BF92CF92DF92EF92FF920F93BA
S11309F01F93CF93DF93CDB7DEB760970FB6F8940C
S1130A00DEBF0FBECDBF7C01142F6901662339F010
S1130A10992314F48DE201C08BE20E94B20401E038
S1130A20111100E0DD200CF44CC0AC2CC701FF20F8
S1130A3024F4882799278E199F091A14E4F5FE01D6
S1130A40319610E02AE030E001C0142FB9010E9471
S1130A500D0B805D8193862F972F41E0410F4A153E
S1130A60A4F3112344F10A2C000CBB08912C212F70
S1130A70012E000C330BE1E0F0E0EC0FFD1FE20F60
S1130A80F31F8081803391F4002381F08FEFC81627
S1130A90D80679F0E114F10429F42F5F3F4F2A15A9
S1130AA03B0539F080E20E94B20403C00E94B20404
S1130AB0092D1150E2F6002379F080E30E94B2047C
S1130AC00BC0C701FF2024F4882799278E199F099A
S1130AD06894AA24A4F8B3CF60960FB6F894DEBF46
S1130AE00FBECDBFDF91CF911F910F91FF90EF907B
S1130AF0DF90CF90BF90AF909F9008954F925F92F8
S1130B006F927F92AF92BF92CF92DF92EF92FF9259
S1130B100F931F93CF93DF932B013C01B42EA22E8E
S1130B208FEFE816F80609F48DC020E030E0A90143
S1130B30C301B2010E942D0988230CF04EC077FA3C
S1130B40709477F87094C301B2010E94A4096B01F8
S1130B50072E000C880B990B0E94DC099B01AC0149
S1130B60C301B2010E94C0081E141F0474F50F2EA5
S1130B70FDE27F2EF02D04C00F2EFBE27F2EF02D20
S1130B80C0E0D0E020E030E040E251E40E948C0A72
S1130B902196CE15DF05B4F30E94A409EB018DE282
S1130BA0781203C0D194C194D10898014A2D6B2DB9
S1130BB0C6010E94F0048CE20E94B204970140E353
S1130BC060E0CE010E94F0044CC00E94A409EB0135
S1130BD0E9CF0E94A409EB01E8CFC301B2010E944E
S1130BE0A4096B01072E000C880B990B0E94DC09E9
S1130BF09B01AC01C301B2010E94C0081E141F0472
S1130C000CF4BACFE6CF77FA709477F87094C301F6
S1130C10B2010E94A4096B01072E000C880B990BEA
S1130C200E94DC099B01AC01C301B2010E94C0080F
S1130C300F2EF3E0EF2EF12CF02D0F2EFDE27F2E80
S1130C40F02D9ECF20E030E0A901C301B2010E9443
S1130C502D098823C4F20F2EF3E0EF2EF12CF02D92
S1130C60BCCFDF91CF911F910F91FF90EF90DF9058
S1130C70CF90BF90AF907F906F905F904F9008950A
S1130C802F923F924F925F926F927F928F929F9298
S1130C90AF92BF92CF92DF92EF92FF920F931F9386
S1130CA0CF93DF93CDB7DEB7FE017596A190B190D7
S1130CB04F01F5018081882309F44DC120E030E023
S1130CC0D12C55245A9466246A94712C312C412CCD
S1130CD0CC24C3946894222422F88C3049F4C09222
S1130CE000018C2D0E94720480E80E947204E9C005
S1130CF08A3011F580910001813039F4F2E0F093EB
S1130D00000180EC0E947204DCC0823039F423E0DC
S1130D102093000184E90E947204D3C0833031F42B
S1130D202092000184ED0E947204CBC0C0920001A5
S1130D3080E80E947204C5C08D3061F48091000186
S1130D40882321F080EC0E947204BBC080E80E94DA
S1130D507204B7C0893069F480E20E94B20480E270
S1130D600E94B20480E20E94B20480E20E94B204B3
S1130D70A8C08C3521F484EA0E94B204A2C0853252
S1130D8009F09DC0F501E20FF31F8181853221F442
S1130D90D3940E94B20495C0D394F501ED0DF11DD6
S1130DA09081933609F4ABC0983409F4BDC09436ED
S1130DB009F4C3C0963609F48EC0933709F4A9C068
S1130DC0E52CF62C252D362D672D472D572D9B32DE
S1130DD009F44DC09D3209F44CC09E3209F44BC055
S1130DE0903389F4611149C0403309F049C0C90105
S1130DF0880F991F220F331F220F331F220F331F17
S1130E00280F391F3EC08FEC890F8930D0F56C3222
S1130E10B9F48FEFE816F80611F4E32CF42CF7017B
S1130E20EE0FFF1FEE0CFF1CEE0CFF1CEE0CFF1C64
S1130E30EE0EFF1E892F90E0C097E80EF91E21C028
S1130E402F3FEFEF3E0711F4232D342DF901EE0F60
S1130E50FF1F220F331F220F331F220F331F2E0FAA
S1130E603F1F892F90E0C097280F391F0AC05BE20B
S1130E7008C05BE206C06CE204C0E32CF42C01C0A1
S1130E8040E3D394F501ED0DF11D90819336B9F152
S1130E90983409F449C0943609F453C0963609F1DC
S1130EA0933709F094CF35C010E00E94B2041F5F5D
S1130EB0F701E10FF11D80818111F7CF02C00E947B
S1130EC0B204D3942D2D30E0F501E20FF31F80819D
S1130ED0811103CF40C0E52CF62C252D362D472D4E
S1130EE0572DF4016081718182819381F4E08F0E2A
S1130EF0911C8901242F452F0E947E05E2CF7401A5
S1130F0022E0E20EF11CF40180810E94B204470148
S1130F10D8CFF401E080F180F2E08F0E911CF7014C
S1130F2080818111C1CFCDCFF40180819181F2E024
S1130F308F0E911C0E94D504C4CF252D362D472D2C
S1130F40572DF401652F8081918152E0850E911C0B
S1130F500E94F004B6CFDF91CF911F910F91FF90C3
S1130F60EF90DF90CF90BF90AF909F908F907F9045
S1130F706F905F904F903F902F900895579A559A95
S1130F80569A5F9A82E484BD15BC17BC16BC5D9862
S1130F9008954F925F926F927F928F929F92AF9239
S1130FA0BF92EF92FF921F93CF93DF93CDB7DEB73B
S1130FB02A970FB6F894DEBF0FBECDBF2AE0E1E05A
S1130FC0F1E0DE01119601900D922A95E1F7009768
S1130FD009F468C09C01A8E6B1E00E94210B0E94BC
S1130FE0DA0926E636E646EE5DE30E9432099B0105
S1130FF0AC010E94C1084B015C0169817A8180E0E7
S113100090E00E94DA09A50194010E948C0A9B01D8
S1131010AC0160E579EA8BEA9EE40E9432090E9401
S1131020AB092B013C0121E0421A51086108710807
S1131030EEEF4E1651046104710448F17E01F3E0B1
S1131040EF0EF11C11E0F701619171917F0180E0D5
S113105090E00E94DA09A50194010E948C0A9B0188
S1131060AC0160E579EA8BEA9EE40E9432090E94B1
S1131070AB092B013C01F1E04F1A510861087108DA
S11310802EEF421651046104710440F401C010E0D3
S11310901F5F15BD67BD16BC5F9806C01F5F153086
S11310A091F602C015BC5F9A2A960FB6F894DEBF7B
S11310B00FBECDBFDF91CF911F91FF90EF90BF90F6
S11310C0AF909F908F907F906F905F904F90089516
S11310D0BF92CF92DF92EF92FF920F931F93CF9321
S11310E0DF93EC018617970710F08FEF01C081E0C2
S11310F0C82E880FDD087B01EC0CFD1CCE15DF0526
S113110091F10FE412E00F2EF4E1BF2EF02DF8015F
S1131110D383C2839E01ADECBCEC0E94210B92955B
S113112082958F7089279F708927B89E9001B99EF8
S1131130300D1124C217D30719F483E70E94040168
S1131140F801828193810E94C907FFE722E382E0CC
S1131150F15020408040E1F700C00000CC0DDD1DBF
S1131160CE15DF05A1F683E70E940401DF91CF913C
S11311701F910F91FF90EF90DF90CF90BF90089553
S11311805058BB27AA270E94D8080C94520A0E94E0
S1131190440A38F00E944B0A20F039F49F3F19F4B6
S11311A026F40C94410A0EF4E095E7FB0C943B0AF8
S11311B0E92F0E94630A58F3BA176207730784077A
S11311C0950720F079F4A6F50C94850A0EF4E095C1
S11311D00B2EBA2FA02D0B01B90190010C01CA01ED
S11311E0A0011124FF27591B99F0593F50F4503E98
S11311F068F11A16F040A22F232F342F4427585F8A
S1131200F3CF469537952795A795F0405395C9F7A1
S11312107EF41F16BA0B620B730B840BBAF0915059
S1131220A1F0FF0FBB1F661F771F881FC2F70EC0F8
S1131230BA0F621F731F841F48F4879577956795CB
S1131240B795F7959E3F08F0B0CF9395880F08F0B7
S11312509927EE0F9795879508950E94170A08F429
S113126081E008950E9446090C94520A0E944B0A98
S113127058F00E94440A40F029F45F3F29F00C948E
S11312803B0A51110C94860A0C94410A0E94630A89
S113129068F39923B1F3552391F3951B550BBB27A1
S11312A0AA2762177307840738F09F5F5F4F220FE6
S11312B0331F441FAA1FA9F335D00E2E3AF0E0E8DD
S11312C032D091505040E695001CCAF72BD0FE2F27
S11312D029D0660F771F881FBB1F261737074807BB
S11312E0AB07B0E809F0BB0B802DBF01FF27935873
S11312F05F4F3AF09E3F510578F00C943B0A0C94F2
S1131300860A5F3FE4F3983ED4F386957795679514
S1131310B795F7959F5FC9F7880F911D96958795A7
S113132097F90895E1E0660F771F881FBB1F6217C6
S113133073078407BA0720F0621B730B840BBA0B84
S1131340EE1F88F7E09508950E94AB096894B111E7
S11313500C94860A08950E946B0A88F09F5798F0AF
S1131360B92F9927B751B0F0E1F0660F771F881FA6
S1131370991F1AF0BA95C9F714C0B13091F00E94C0
S1131380850AB1E008950C94850A672F782F882781
S1131390B85F39F0B93FCCF3869577956795B395E7
S11313A0D9F73EF490958095709561957F4F8F4F56
S11313B09F4F0895E89409C097FB3EF4909580955B
S11313C0709561957F4F8F4F9F4F9923A9F0F92F07
S11313D096E9BB279395F695879577956795B79585
S11313E0F111F8CFFAF4BB0F11F460FF1BC06F5F6B
S11313F07F4F8F4F9F4F16C0882311F096E911C07D
S1131400772321F09EE8872F762F05C0662371F09D
S113141096E8862F70E060E02AF09A95660F771FB1
S1131420881FDAF7880F9695879597F90895990F8D
S11314300008550FAA0BE0E8FEEF16161706E8079A
S1131440F907C0F012161306E407F50798F0621BBB
S1131450730B840B950B39F40A2661F0232B242B90
S1131460252B21F408950A2609F4A140A6958FEFAF
S1131470811D811D089597F99F6780E870E060E001
S113148008959FEF80EC089500240A941616170619
S113149018060906089500240A9412161306140661
S11314A005060895092E0394000C11F4882352F0C4
S11314B0BB0F40F4BF2B11F460FF04C06F5F7F4F7C
S11314C08F4F9F4F089557FD9058440F551F59F063
S11314D05F3F71F04795880F97FB991F61F09F3F1D
S11314E079F087950895121613061406551FF2CF46
S11314F04695F1DF08C0161617061806991FF1CF96
S113150086957105610508940895E894BB276627BC
S11315107727CB0197F908950E949F0A0C94520AE9
S11315200E94440A38F00E944B0A20F0952311F0DF
S11315300C943B0A0C94410A11240C94860A0E94D0
S1131540630A70F3959FC1F3950F50E0551F629F96
S1131550F001729FBB27F00DB11D639FAA27F00D08
S1131560B11DAA1F649F6627B00DA11D661F829F2F
S11315702227B00DA11D621F739FB00DA11D621F14
S1131580839FA00D611D221F749F3327A00D611D31
S1131590231F849F600D211D822F762F6A2F112413
S11315A09F5750409AF0F1F088234AF0EE0FFF1F46
S11315B0BB1F661F771F881F91505040A9F79E3F9D
S11315C0510580F00C943B0A0C94860A5F3FE4F3C7
S11315D0983ED4F3869577956795B795F795E795F3
S11315E09F5FC1F7FE2B880F911D9695879597F9FC
S11315F00895AA1BBB1B51E107C0AA1FBB1FA61756
S1131600B70710F0A61BB70B881F991F5A95A9F7A7
S113161080959095BC01CD01089597FB072E16F493
S1131620009407D077FD09D00E94F90A07FC05D081
S11316303EF4909581959F4F0895709561957F4FE5
S11316400895A29FB001B39FC001A39F700D811D97
S11316501124911DB29F700D811D1124911D0895B7
S1071660F894FFCF28
S113166401010008004000000100040C4361733AC6
S113167420202020202020202532643A2530326482
S11316843A25303264000C4361733A202020202030
S11316942020202020202532643A25303264000A98
S11316A44F7461636B793A2020202020202020206D
S11316B4253464000A25635374617274000A256333
S11316C453746F70000A25634D656E75000C2563B1
S11316D4527963686C6F7374206F6D796C616E6991
S11316E4000A256344656C6B61206F6D796C616ECF
S11316F469000A25634E61636973742070726F66AE
S1131704696C000A2563556C6F7A69742070726F72
S113171466696C000C4E6173746176656E69206F42
S1131724746163656B000A7A61206D696E75747502
S1131734000A537461726120686F646E6F74613A55
S1131744253664000A4E6F76612020686F646E6FDC
S113175474613A253664000C4E6173746176656E67
S1131764692064656C6B79000A6F6D796C616E69CC
S1131774205B48483A4D4D5D000A537461727920E8
S11317846361733A20202020202532643A253032C4
S113179464000A4E6F767920206361733A20202016
S10F17A420202532643A25303264000015
S9030000FC
