S01A00006B6F6B795F656E67696E655F6472697665722E737265638C
S11300000C9461000C9480000C94B0000C947E005D
S11300100C947E000C947E000C947E000C947E0064
S11300200C947E000C947E000C947E000C94400290
S11300300C947E000C947E000C947E000C947E0044
S11300400C94D0020C947E000C947E000C947E00E0
S11300500C947E000C947E000C947E000C947E0024
S11300600C947E000C947E0008000000BE9224498B
S1130070123EABAAAA2ABECDCCCC4C3E00000080D6
S1130080BEABAAAAAA3E00000000BF000000803F49
S11300900000000000084178D3BB4387D1133D1909
S11300A00E3CC3BD4282AD2B3E68EC8276BED98F36
S11300B0E1A93E4C80EFFFBE01C4FF7F3F0000007A
S11300C0000011241FBECFEFD8E0DEBFCDBF12E089
S11300D0A0E0B1E0E2EEF5E302C005900D92A43E8B
S11300E0B107D9F722E0A4EEB2E001C01D92AA3F05
S11300F0B207E1F70E9452010C94EF1A0C9400002D
S11301001F920F9200905F000F9211242F933F9340
S11301104F935F936F937F938F939F93AF93BF930B
S1130120EF93FF93CF93DF93CDB7DEB70E94BC026A
S113013082E60E9496030000DF91CF91FF91EF9138
S1130140BF91AF919F918F917F916F915F914F91EB
S11301503F912F910F9000925F000F901F90189580
S11301601F920F9200905F000F9211242F933F93E0
S11301704F935F936F937F938F939F93AF93BF93AB
S1130180EF93FF93CF93DF93CDB7DEB70E94BC020A
S113019089E290E0FC018081882F90E080719927AA
S11301A0892BB1F08091E402882369F48091E502FF
S11301B08F5F8093E5028091E5028530F8F08DE24F
S11301C00E9496031BC01092E4021092E50216C02E
S11301D08091E402882369F08091E5028F5F809327
S11301E0E5028091E502853048F08BE20E94960397
S11301F005C081E08093E4021092E5020000DF91E3
S1130200CF91FF91EF91BF91AF919F918F917F918A
S11302106F915F914F913F912F910F9000925F00EA
S11302200F901F901895CF93DF93CDB7DEB78BE275
S113023090E02BE230E0F90120812460FC0120836E
S113024089E690E022E0FC0120838DE390E021E048
S1130250FC0120838BE290E02BE230E0F901208165
S11302602061FC0120838BE290E02BE230E0F90175
S113027020812860FC01208389E690E029E630E0B3
S1130280F90120812860FC0120838DE390E02DE3B7
S113029030E0F90120812260FC0120830000DF911D
S11302A0CF910895CF93DF93CDB7DEB72E970FB6D6
S11302B0F894DEBF0FBECDBF84E290E0FC01108253
S11302C087E290E0FC0110828AE290E0FC01108257
S11302D085E290E0FC01108288E290E0FC0110824B
S11302E08BE290E0FC0110820E944F150E941301E2
S11302F00E94A10A0E94101478940E94440383E788
S11303000E9496030E9422141F922FED2F93292FEF
S11303102F938F938EE091E0892F8F938EE091E05D
S11303208F930E9479110F900F900F900F900F9060
S11303300F9080E090E0AAE7B4E489839A83AB83CA
S1130340BC8320E030E84BEB55E469817A818B81F2
S11303509C810E949F19DC01CB018D839E83AF8316
S1130360B88720E030E040E85FE36D817E818F81D3
S113037098850E94EB1788232CF481E090E09A87FB
S113038089873FC020E03FEF4FE757E46D817E81CE
S11303908F8198850E944A1918164CF520E030E0A8
S11303A040E251E469817A818B819C810E949F198A
S11303B0DC01CB01BC01CD010E946918DC01CB0139
S11303C09A8789870FC088E592E09C878B878B8505
S11303D09C850197F1F79C878B8789859A8501977E
S11303E09A87898789859A85892B69F714C06D81D5
S11303F07E818F8198850E946918DC01CB019A87E0
S1130400898789859A859E878D878D859E850197A5
S1130410F1F79E878D8776CFCF93DF93CDB7DEB785
S11304200E94330280E890E0FC01108288E890E0AA
S11304302DE83BE5FC01318320838FE690E022E048
S1130440FC0120830000DF91CF910895CF93DF93C7
S1130450CDB7DEB781E890E02DE0FC0120830000F9
S1130460DF91CF910895CF93DF93CDB7DEB781E8C5
S113047090E028E0FC0120830000DF91CF910895F3
S11304801F920F9200905F000F9211242F933F93BD
S11304904F935F936F937F938F939F93AF93BF9388
S11304A0EF93FF93CF93DF93CDB7DEB78091F7023D
S11304B08823A9F58091ED029091EE02892B49F0F1
S11304C08091ED029091EE0201979093EE02809359
S11304D0ED028091ED029091EE02892BE9F4809176
S11304E0EB029091EC0260E070E00E9495160E948D
S11304F0330281E08093F7028091F3029091F40239
S1130500A091F502B091F6028093EB029093EC0275
S1130510A093ED02B093EE0283E70E9496030000DD
S1130520DF91CF91FF91EF91BF91AF919F918F9107
S11305307F916F915F914F913F912F910F90009216
S11305405F000F901F901895CF93DF93CDB7DEB760
S113055084E490E0FC01108285E490E025E0FC0155
S113056020838EE690E021E0FC0120830E94BC02FF
S11305700000DF91CF910895CF93DF93CDB7DEB71D
S11305801092EF021092F0021092F1021092F20215
S113059086E490E0FC0110820000DF91CF91089581
S11305A01F920F9200905F000F9211242F933F939C
S11305B04F935F936F937F938F939F93AF93BF9367
S11305C0EF93FF93CF93DF931F92CDB7DEB783E012
S11305D089838091EF029091F002A091F102B09191
S11305E0F2020196A11DB11D8093EF029093F002D7
S11305F0A093F102B093F2028981882F90E0A0E0E9
S1130600B0E09C01AD0160E076E38EE691E00E94EB
S1130610411ADC01CB019C01AD01012E12E156957A
S11306204795379527951A95D1F7102D8091EF02AC
S11306309091F002A091F102B091F20228173907CB
S11306404A075B0759F40E94BC028091EA0288239E
S113065029F01092EA0283E70E94960300000F90AB
S1130660DF91CF91FF91EF91BF91AF919F918F91C6
S11306707F916F915F914F913F912F910F900092D5
S11306805F000F901F901895CF93DF93CDB7DEB71F
S11306901092EA0281E08093F7021092F90210921C
S11306A0F8020E940C020E94A40280E190E00E94E1
S11306B0C51A8F3F41F44DE050E060E170E080E006
S11306C091E00E94CD1A4DE050E060E170E080E0DE
S11306D091E00E94B51A80910001882F90E0880F64
S11306E0991F880F991F8F5F9E4FFC018081918114
S11306F0A281B3818093EB029093EC02A093ED026C
S1130700B093EE028091EB029091EC02A091ED0285
S1130710B091EE028093F3029093F402A093F50259
S1130720B093F6020000DF91CF910895CF93DF9349
S113073000D000D01F92CDB7DEB78D838091EA023E
S1130740882F90E08230910509F4EEC08330910542
S113075034F4009781F0019709F484C028C28430EE
S1130760910509F469C1843091050CF421C1059700
S113077009F4BFC11CC28D81882F90E08D32910590
S113078031F08236910589F08B9709F010C280917F
S1130790F702882309F464C09091E60281E099236A
S11307A009F080E08093E6025CC08091E602882331
S11307B009F042C08091F702813001F51092F702EE
S11307C08091EB029091EC02A091ED02B091EE02C7
S11307D08093F3029093F402A093F502B093F6028F
S11307E02091EB023091EC028091F8029091F90291
S11307F0B9010E9495160E94260233C081E08093BD
S1130800F7028091EB029091EC0260E070E00E94AC
S113081095160E9433028091F3029091F402A09104
S1130820F502B091F6028093EB029093EC02A09350
S1130830ED02B093EE0215C081E08093EA0280914C
S1130840EB029091EC02A091ED02B091EE02809344
S1130850F3029093F402A093F502B093F60201C060
S11308600000A5C18D81882F90E08D32910511F192
S113087082369105D9F18B9709F099C18091E702ED
S1130880882F90E08130910549F08230910551F034
S1130890892B61F481E08093E7020BC082E08093AE
S11308A0E70207C083E08093E70203C01092E702E7
S11308B03AC039C08091E702882F90E081309105D9
S11308C049F08230910549F0892B59F483E08093F3
S11308D0E7020BC01092E70208C081E08093E702B0
S11308E004C082E08093E7021EC01DC08091E7022D
S11308F0882F90E08130910549F08230910551F0C4
S1130900892B61F482E08093EA020CC083E0809337
S1130910EA0208C084E08093EA0204C085E0809380
S1130920EA0200C0000043C18D81882F90E08D321F
S11309309105B9F08236910521F18B9709F037C101
S11309408091F3029091F4028C32914068F5809189
S1130950F3029091F40201969093F4028093F302CF
S113096023C08091F3029091F402892BF9F08091D5
S1130970F3029091F40201979093F4028093F302AE
S113098015C01092EA028091F3029091F402A091B2
S1130990F502B091F6028093EB029093EC02A093DF
S11309A0ED02B093EE0203C0000001C10000FFC0DD
S11309B08D81882F90E08D329105B9F082369105B2
S11309C021F18B9709F0F3C08091F5029091F60222
S11309D0803A9C4868F58091F5029091F602CC9695
S11309E09093F6028093F50223C08091F5029091D2
S11309F0F602892BF9F08091F5029091F602CC97DA
S1130A009093F6028093F50215C01092EA02809149
S1130A10F3029091F402A091F502B091F602809352
S1130A20EB029093EC02A093ED02B093EE0203C0AC
S1130A300000BDC00000BBC08D81882F90E08D32C6
S1130A409105D9F08236910569F18B9709F0AFC011
S1130A508091E802882F90E0009719F0019729F01F
S1130A6008C081E08093E80207C082E08093E80236
S1130A7003C01092E8023CC03BC08091E802882F7A
S1130A8090E0009719F0019729F007C082E0809365
S1130A90E80207C01092E80204C081E08093E802F3
S1130AA027C026C01092EA028091E80280930001D8
S1130AB080910001882F90E0880F991F880F991F5B
S1130AC08F5F9E4FFC0180819181A281B3818093CD
S1130AD0EB029093EC02A093ED02B093EE024DE092
S1130AE050E060E170E080E091E00E94CD1A0000E7
S1130AF05EC08D81882F90E08D329105D9F08236C9
S1130B00910569F18B9709F051C08091E902882F12
S1130B1090E0009719F0019729F008C081E08093D4
S1130B20E90207C082E08093E90203C01092E9025F
S1130B303DC03CC08091E902882F90E0009719F0F5
S1130B40019729F007C082E08093E90207C0109260
S1130B50E90204C081E08093E90228C027C0109212
S1130B60EA028091E9028093000180910001882FBC
S1130B7090E0880F991F880F991F9C012F5F3E4FAB
S1130B808091EB029091EC02A091ED02B091EE0203
S1130B90F90180839183A283B3834DE050E060E147
S1130BA070E080E091E00E94CD1A00000000809186
S1130BB0EA02882F90E08230910509F409C283305B
S1130BC0910534F4009781F0019709F49CC1B0C4F5
S1130BD08430910509F4BEC2843091050CF437C207
S1130BE0059709F4AEC3A4C48091ED029091EE027E
S1130BF080319E4008F45FC08091ED029091EE0236
S1130C0020E13EE0B9010E94511AAC019A01A9E821
S1130C10B8E80E949B1AFC01F695E795F295E295D7
S1130C20EF70EF27FF70EF272CE32E9FC0012F9F5B
S1130C30900D1124FA01E81BF90B8091ED029091BB
S1130C40EE0220E13EE0B9010E94511A9C01A9E89C
S1130C50B8E80E949B1A9C013695279532952295F7
S1130C602F7023273F7023278091ED029091EE028D
S1130C7040E15EE0BA010E94511ACB014F2F4F931D
S1130C804E2F4F93432F4F932F93292F2F938F93AF
S1130C908EE191E0892F8F938EE191E08F930E94F2
S1130CA079114DB75EB7485F5F4F0FB6F894DEBF5A
S1130CB00FBECDBF4DC08091ED029091EE0220E1B8
S1130CC03EE0B9010E94511AAC019A01A9E8B8E8C2
S1130CD00E949B1AFC01F695E795F295E295EF7058
S1130CE0EF27FF70EF272CE32E9FC0012F9F900D5D
S1130CF01124FA01E81BF90B8091ED029091EE02A8
S1130D0020E13EE0B9010E94511A9C01A9E8B8E82B
S1130D100E949B1A96958795929582958F70892744
S1130D209F7089272F2F2F932E2F2F93292F2F93A7
S1130D308F9389E391E0892F8F9389E391E08F93D7
S1130D400E9479110F900F900F900F900F900F90B9
S1130D508091EB029091EC02292F2F938F9382E5DF
S1130D6091E0892F8F9382E591E08F930E9479110E
S1130D700F900F900F900F908091F702882F90E0C2
S1130D80019741F58091E602813019F428E030E0C2
S1130D9002C020E230E08091E602882319F488E062
S1130DA090E002C080E290E0432F4F932F93292FCD
S1130DB02F938F9387E691E0892F8F9387E691E0B5
S1130DC08F930E9479110F900F900F900F900F90B6
S1130DD00F9098C080E891E0892F8F9380E891E08C
S1130DE08F930E9479110F900F902091F50230910A
S1130DF0F6028091ED029091EE02F901E81BF90BE5
S1130E00CF01CC01A0E0B0E089839A83AB83BC839B
S1130E1089819A81AB81BC81892B8A2B8B2B09F424
S1130E204FC089819A81AB81BC81880F991FAA1F09
S1130E30BB1F880F991FAA1FBB1F9C01AD01220F66
S1130E40331F441F551F220F331F441F551F820F8A
S1130E50931FA41FB51F89839A83AB83BC8380919E
S1130E60F5029091F6029C0140E050E089819A815C
S1130E70AB81BC81BC01CD010E94791ADA01C901A0
S1130E8089839A83AB83BC831BC01F9289E08F93B1
S1130E9082E891E0892F8F9382E891E08F930E94FA
S1130EA079110F900F900F900F9089819A81AB81E7
S1130EB0BC810197A109B10989839A83AB83BC835F
S1130EC089819A81AB81BC81892B8A2B8B2BE9F692
S1130ED08091E602882319F488E090E002C080E261
S1130EE090E0292F2F938F9385E891E0892F8F939A
S1130EF085E891E08F930E9479110F900F900F90E5
S1130F000F90000015C38091E702882319F488E04C
S1130F1090E002C080E290E0292F2F938F938DE818
S1130F2091E0892F8F938DE891E08F930E9479113E
S1130F300F900F900F900F908091E702813019F479
S1130F4088E090E002C080E290E0292F2F938F93F5
S1130F5081EA91E0892F8F9381EA91E08F930E9437
S1130F6079110F900F900F900F908091E7028230CB
S1130F7019F488E090E002C080E290E0292F2F93DA
S1130F808F9382EB91E0892F8F9382EB91E08F9383
S1130F900E9479110F900F900F900F908091E702AB
S1130FA0833019F488E090E002C080E290E0292FB9
S1130FB02F938F9383EC91E0892F8F9383EC91E0AF
S1130FC08F930E9479110F900F900F900F90B0C2E1
S1130FD084ED91E0892F8F9384ED91E08F930E94AB
S1130FE079110F900F9086EE91E0892F8F9386EE02
S1130FF091E08F930E9479110F900F908091EB02F2
S11310009091EC02292F2F938F9381EF91E0892FF8
S11310108F9381EF91E08F930E9479110F900F903D
S11310200F900F908091F3029091F402292F2F9347
S11310308F9384E092E0892F8F9384E092E08F93E2
S11310400E9479110F900F900F900F9071C287E159
S113105092E0892F8F9387E192E08F930E94791118
S11310600F900F9088E292E0892F8F9388E292E0AC
S11310708F930E9479110F900F908091ED029091BF
S1131080EE0220E13EE0B9010E94511A9C01A9E858
S1131090B8E80E949B1A9C013695279532952295B3
S11310A02F7023273F7023278091ED029091EE0249
S11310B040E15EE0BA010E94511ACB01432F4F93E5
S11310C02F93292F2F938F9389E392E0892F8F9366
S11310D089E392E08F930E9479110F900F900F9003
S11310E00F900F900F908091F5029091F60220E1FD
S11310F03EE0B9010E94511A9C01A9E8B8E80E9497
S11311009B1A9C0136952795329522952F7023279B
S11311103F7023278091F5029091F60240E15EE052
S1131120BA010E94511ACB01432F4F932F93292FB9
S11311302F938F9382E592E0892F8F9382E592E03B
S11311408F930E9479110F900F900F900F900F9032
S11311500F90EEC18BE692E0892F8F938BE692E09D
S11311608F930E9479110F900F90E0910101F091FB
S11311700201809103019091040120E13EE0B90154
S11311800E94511A9C01A9E8B8E80E949B1A9C018C
S113119036952795329522952F7023273F70232764
S11311A0809103019091040140E15EE0BA010E9444
S11311B0511ACB01AC018091E802882319F488E02C
S11311C090E002C080E290E06F2F6F936E2F6F93D8
S11311D0632F6F932F93252F2F93242F2F93292F32
S11311E02F938F938CE792E0892F8F938CE792E073
S11311F08F930E9479114DB75EB7465F5F4F0FB66C
S1131200F894DEBF0FBECDBFE0910501F091060159
S1131210809107019091080120E13EE0B9010E940C
S1131220511A9C01A9E8B8E80E949B1A9C013695C2
S11312302795329522952F7023273F70232780917D
S113124007019091080140E15EE0BA010E94511A41
S1131250CB01AC018091E802813019F488E090E080
S113126002C080E290E06F2F6F936E2F6F93632F15
S11312706F932F93252F2F93242F2F93292F2F9361
S11312808F9384E992E0892F8F9384E992E08F937E
S11312900E9479118DB79EB70A960FB6F894DEBFF7
S11312A00FBECDBFE0910901F0910A0180910B01BD
S11312B090910C0120E13EE0B9010E94511A9C0179
S11312C0A9E8B8E80E949B1A9C01369527953295A7
S11312D022952F7023273F70232780910B01909133
S11312E00C0140E15EE0BA010E94511ACB01AC014D
S11312F08091E802823019F488E090E002C080E234
S113130090E06F2F6F936E2F6F93632F6F932F93D4
S1131310252F2F93242F2F93292F2F938F938CEAEC
S113132092E0892F8F938CEA92E08F930E94791137
S1131330EDB7FEB73A960FB6F894DEBF0FBECDBF39
S1131340F7C084EC92E0892F8F9384EC92E08F9322
S11313500E9479110F900F90E0910101F091020128
S1131360809103019091040120E13EE0B9010E94C3
S1131370511A9C01A9E8B8E80E949B1A9C01369571
S11313802795329522952F7023273F70232780912C
S113139003019091040140E15EE0BA010E94511AF8
S11313A0CB01AC018091E902882319F488E090E034
S11313B002C080E290E06F2F6F936E2F6F93632FC4
S11313C06F932F93252F2F93242F2F93292F2F9310
S11313D08F938CE792E0892F8F938CE792E08F9321
S11313E00E9479114DB75EB7465F5F4F0FB6F89410
S11313F0DEBF0FBECDBFE0910501F09106018091E3
S113140007019091080120E13EE0B9010E94511AC0
S11314109C01A9E8B8E80E949B1A9C01369527957F
S1131420329522952F7023273F702327809107013F
S11314309091080140E15EE0BA010E94511ACB018B
S1131440AC018091E902813019F488E090E002C097
S113145080E290E06F2F6F936E2F6F93632F6F93E3
S11314602F93252F2F93242F2F93292F2F938F934F
S113147084E992E0892F8F9384E992E08F930E940C
S113148079118DB79EB70A960FB6F894DEBF0FBEDA
S1131490CDBFE0910901F0910A0180910B01909177
S11314A00C0120E13EE0B9010E94511A9C01A9E817
S11314B0B8E80E949B1A9C0136952795329522958F
S11314C02F7023273F70232780910B0190910C01EB
S11314D040E15EE0BA010E94511ACB01AC01809157
S11314E0E902823019F488E090E002C080E290E0E2
S11314F06F2F6F936E2F6F93632F6F932F93252FFF
S11315002F93242F2F93292F2F938F938CEA92E0DC
S1131510892F8F938CEA92E08F930E947911EDB713
S1131520FEB73A960FB6F894DEBF0FBECDBF0000EB
S113153000000F900F900F900F900F90DF91CF91BC
S11315400895CF93DF93CDB7DEB72E970FB6F894F7
S1131550DEBF0FBECDBF8AE290E02AE230E0F9019F
S113156020812160FC0120838BE290E02BE230E0BB
S1131570F90120812E7FFC01208387E290E027E29D
S113158030E0F90120812061FC01208388E290E0B1
S113159028E230E0F90120812F7EFC01208387E2DC
S11315A090E027E230E0F90120812160FC012083F2
S11315B087E290E027E230E0F90120812260FC011B
S11315C0208387E290E027E230E0F9012081246063
S11315D0FC01208387E290E027E230E0F9012081DA
S11315E02860FC01208388E290E028E230E0F901E1
S11315F020812E7FFC01208388E290E028E230E005
S1131600F90120812D7FFC01208388E290E028E20B
S113161030E0F90120812B7FFC01208388E290E0F7
S113162028E230E0F9012081277FFC01208382E059
S113163090E00E94E80B88E290E028E230E0F901B3
S113164020812061FC01208380E090E0A0E0B0E4F0
S113165089839A83AB83BC8320E030E84BEB55E469
S113166069817A818B819C810E949F19DC01CB0165
S11316708D839E83AF83B88720E030E040E85FE34A
S11316806D817E818F8198850E94EB1788232CF4CD
S113169081E090E09A8789873FC020E03FEF4FE7E1
S11316A057E46D817E818F8198850E944A191816AE
S11316B04CF520E030E040E251E469817A818B818D
S11316C09C810E949F19DC01CB01BC01CD010E94C9
S11316D06918DC01CB019A8789870FC088E592E0FD
S11316E09C878B878B859C850197F1F79C878B87DB
S11316F089859A8501979A87898789859A85892B0F
S113170069F714C06D817E818F8198850E94691864
S1131710DC01CB019A87898789859A859E878D8785
S11317208D859E850197F1F79E878D8788E290E0ED
S113173028E230E0F90120812F7EFC01208388E239
S11317400E945B0C8CE00E945B0C81E00E945B0CAD
S113175080E40E945B0C80E10E94800D88E10E947D
S1131760800D8CE10E94800D8EE10E94800D8CE141
S11317700E94800D88E10E94800D80E10E94800D0E
S113178080E00E94800D80E00E94800D80E00E9435
S1131790800D8FE10E94800D8FE10E94800D8FE10A
S11317A00E94800D8FE10E94800D80E00E94800DD8
S11317B080E00E94800D80E80E945B0C00002E9661
S11317C00FB6F894DEBF0FBECDBFDF91CF91089561
S11317D0CF93DF931F92CDB7DEB789838981882F9A
S11317E090E088709927892B51F088E290E028E2F4
S11317F030E0F90120812160FC01208309C088E2E6
S113180090E028E230E0F90120812E7FFC01208362
S11318108981882F90E084709927892B51F088E280
S113182090E028E230E0F90120812260FC0120836D
S113183009C088E290E028E230E0F90120812D7FA0
S1131840FC0120838981882F90E082709927892B5D
S113185051F088E290E028E230E0F9012081246030
S1131860FC01208309C088E290E028E230E0F9011D
S113187020812B7FFC0120838981882F90E0817057
S11318809927892B51F088E290E028E230E0F901B1
S113189020812860FC01208309C088E290E028E2CE
S11318A030E0F9012081277FFC01208300000F90A4
S11318B0DF91CF910895CF93DF93CDB7DEB76D97C6
S11318C00FB6F894DEBF0FBECDBF8D8F8D8D829580
S11318D08F700E94E80B88E290E028E230E0F90182
S11318E020812061FC01208380E090E0A0E4B0E44A
S11318F089839A83AB83BC8320E030E84BEB55E4C7
S113190069817A818B819C810E949F19DC01CB01C2
S11319108B8B9C8BAD8BBE8B20E030E040E85FE38B
S11319206B897C898D899E890E94EB1788232CF40E
S113193081E090E0988F8F8B3FC020E03FEF4FE72E
S113194057E46B897C898D899E890E944A191816EF
S11319504CF520E030E040E251E469817A818B81EA
S11319609C810E949F19DC01CB01BC01CD010E9426
S11319706918DC01CB01988F8F8B0FC088E592E04A
S11319809A8F898F898D9A8D0197F1F79A8F898F14
S11319908F89988D0197988F8F8B8F89988D892B3C
S11319A069F714C06B897C898D899E890E946918A6
S11319B0DC01CB01988F8F8B8F89988D9C8F8B8FB7
S11319C08B8D9C8D0197F1F79C8F8B8F88E290E033
S11319D028E230E0F90120812F7EFC0120838D8DE7
S11319E00E94E80B88E290E028E230E0F9012081CF
S11319F02061FC01208380E090E0A0E4B0E48D83CA
S1131A009E83AF83B88720E030E84BEB55E46D81CB
S1131A107E818F8198850E949F19DC01CB01898783
S1131A209A87AB87BC8720E030E040E85FE36985B4
S1131A307A858B859C850E94EB1788232CF481E0A2
S1131A4090E09E878D873FC020E03FEF4FE757E44B
S1131A5069857A858B859C850E944A1918164CF5F0
S1131A6020E030E040E251E46D817E818F819885F1
S1131A700E949F19DC01CB01BC01CD010E946918B1
S1131A80DC01CB019E878D870FC088E592E0988B9F
S1131A908F878F8598890197F1F7988B8F878D852C
S1131AA09E8501979E878D878D859E85892B69F7F5
S1131AB014C069857A858B859C850E946918DC0130
S1131AC0CB019E878D878D859E859A8B898B89898D
S1131AD09A890197F1F79A8B898B88E290E028E242
S1131AE030E0F90120812F7EFC01208300006D96F7
S1131AF00FB6F894DEBF0FBECDBFDF91CF9108952E
S1131B00CF93DF93CDB7DEB7C154D1090FB6F894A4
S1131B10DEBF0FBECDBF9E012F5B3F4FF901808317
S1131B208BE290E02BE230E0F90120812160FC019E
S1131B302083CE018F5B9F4FFC01808182958F7043
S1131B400E94E80B88E290E028E230E0F90120816D
S1131B502061FC01208380E090E0A0E2B2E489836C
S1131B609A83AB83BC8320E030E040E051E4698198
S1131B707A818B819C810E949F19DC01CB018DA30A
S1131B809EA3AFA3B8A720E030E040EC50E4698105
S1131B907A818B819C810E949F19DC01CB0189A7EA
S1131BA09AA7ABA7BCA720E030E040E85FE36DA1B3
S1131BB07EA18FA198A50E94EB1788231CF481E0D5
S1131BC08DA7B2C020E03FEF4FE757E469A57AA59F
S1131BD08BA59CA50E944A1918160CF07BC020E026
S1131BE030E04AE754E469817A818B819C810E94C8
S1131BF0F017DC01CB018EA79FA7A8ABB9AB20E0FF
S1131C0030E84BEB55E46EA57FA588A999A90E94FD
S1131C109F19DC01CB018AAB9BABACABBDAB20E025
S1131C2030E040E85FE36AA97BA98CA99DA90E94E2
S1131C30EB1788232CF481E090E09FAB8EAB3FC080
S1131C4020E03FEF4FE757E46AA97BA98CA99DA93F
S1131C500E944A1918164CF520E030E040E251E4A5
S1131C606EA57FA588A999A90E949F19DC01CB01C3
S1131C70BC01CD010E946918DC01CB019FAB8EAB86
S1131C800FC088E592E099AF88AF88AD99AD019710
S1131C90F1F799AF88AF8EA99FA901979FAB8EAB3F
S1131CA08EA99FA9892B69F73FC06AA97BA98CA932
S1131CB09DA90E946918DC01CB019FAB8EAB8EA954
S1131CC09FA99BAF8AAF8AAD9BAD0197F1F79BAFFC
S1131CD08AAF2AC020E030E04FE753E46DA17EA133
S1131CE08FA198A50E944A191816ACF469A57AA583
S1131CF08BA59CA50E946918DC01CB019DAF8CAF1C
S1131D008CAD9DAD9FAF8EAF8EAD9FAD0197F1F7BA
S1131D109FAF8EAF1CC06DA17EA18FA198A50E941C
S1131D206918DC01CB018DA72DA5CE01805C9F4FE6
S1131D30FC012083CE01805C9F4FFC018081282F11
S1131D402A95F1F7CE01805C9F4FFC01208388E245
S1131D5090E028E230E0F90120812F7EFC0120830D
S1131D60CE018F5B9F4FFC0180810E94E80B88E2CB
S1131D7090E028E230E0F90120812061FC01208319
S1131D8080E090E0A0E2B2E48D839E83AF83B887C5
S1131D9020E030E040E051E46D817E818F819885C0
S1131DA00E949F19DC01CB0189879A87AB87BC8786
S1131DB020E030E040EC50E46D817E818F81988595
S1131DC00E949F19DC01CB018D879E87AF87B88B5A
S1131DD020E030E040E85FE369857A858B859C8567
S1131DE00E94EB1788231CF481E0898BB2C020E0A9
S1131DF03FEF4FE757E46D857E858F8598890E9474
S1131E004A1918160CF07BC020E030E04AE754E48D
S1131E106D817E818F8198850E94F017DC01CB0152
S1131E208A8B9B8BAC8BBD8B20E030E84BEB55E46D
S1131E306A897B898C899D890E949F19DC01CB0169
S1131E408E8B9F8BA88FB98F20E030E040E85FE352
S1131E506E897F89888D998D0E94EB1788232CF4D5
S1131E6081E090E09B8F8A8F3FC020E03FEF4FE7F7
S1131E7057E46E897F89888D998D0E944A191816B6
S1131E804CF520E030E040E251E46A897B898C899A
S1131E909D890E949F19DC01CB01BC01CD010E94E8
S1131EA06918DC01CB019B8F8A8F0FC088E592E013
S1131EB09D8F8C8F8C8D9D8D0197F1F79D8F8C8FCD
S1131EC08A8D9B8D01979B8F8A8F8A8D9B8D892B01
S1131ED069F73FC06E897F89888D998D0E94691842
S1131EE0DC01CB019B8F8A8F8A8D9B8D9F8F8E8F78
S1131EF08E8D9F8D0197F1F79F8F8E8F2AC020E0E2
S1131F0030E04FE753E469857A858B859C850E9490
S1131F104A191816ACF46D857E858F8598890E94C0
S1131F206918DC01CB0199A388A388A199A19BA37B
S1131F308AA38AA19BA10197F1F79BA38AA30FC04F
S1131F4069857A858B859C850E946918DC01CB01A3
S1131F50898B89898CA38CA18A95F1F78CA388E25B
S1131F6090E028E230E0F90120812F7EFC012083FB
S1131F708BE290E02BE230E0F90120812E7FFC011E
S1131F8020830000CF5BDF4F0FB6F894DEBF0FBE97
S1131F90CDBFDF91CF910895CF93DF931F92CDB73B
S1131FA0DEB7898389818A3018F48981805D02C013
S1131FB08981895C0F90DF91CF910895CF93DF934E
S1131FC000D000D000D0CDB7DEB79E838D831A82B7
S1131FD019821CC08D819E81892F992782958F70CB
S1131FE09C838B838D819E8182959295907F982787
S1131FF0807F98279E838D838B810E94CC0F0E94C3
S1132000800D89819A8101969A83898389819A8135
S1132010049700F3000026960FB6F894DEBF0FBEB7
S1132020CDBFDF91CF910895CF93DF93CDB7DEB7C6
S11320306B970FB6F894DEBF0FBECDBF9F8B8E8B10
S1132040688F498F3B8F2A8F8E899F899D838C83CC
S113205080E18A8381E08B83888D882349F08E898F
S11320609F89992314F08BE201C08DE20E94800DB8
S1132070898D882309F01B828A8D9B8D992314F006
S11320808A8D8A838E899F8999231CF491958195E1
S113209091099F8B8E8B198220C08981282F880FEC
S11320A0330B8E899F894AE050E0BA010E94651A79
S11320B040E3480FCE010696820F931FFC01408334
S11320C08E899F892AE030E0B9010E94651ACB010C
S11320D09F8B8E8B89818F5F898399818A819817E1
S11320E0E4F28981815089833DC08981082E000CE6
S11320F0990B9E012A5F3F4F820F931FFC01808141
S11321008033E9F48B818823D1F08A8D9B8D0196ED
S113211029F18C819D81892B71F48981082E000C11
S1132120990B9C012F5F3F4F8A81082E000C990B5D
S11321302817390799F080E20E94800D0FC01B8296
S11321408981082E000C990B9E012A5F3F4F820F54
S1132150931FFC0180810E94800D01C000008981D1
S113216081508983898188230CF0BFCF8B81882398
S113217019F080E30E94800D00006B960FB6F8946E
S1132180DEBF0FBECDBFDF91CF910895EF92FF92D6
S11321900F931F93CF93DF93CDB7DEB761970FB63D
S11321A0F894DEBF0FBECDBF688779878A879B8787
S11321B04C872D871F870E87F98AE88A8BE28B83E9
S11321C088899989019621F483E090E0998B888B22
S11321D020E030E0A901688579858A859B850E9485
S11321E0EB1788235CF488859985AA85BB85B0584C
S11321F088879987AA87BB878DE28B8368857985D1
S11322008A859B850E946218DC01CB019D838C83A7
S11322108C819D81092E000CAA0BBB0BBC01CD0146
S11322200E949A18DC01CB019C01AD016885798577
S11322308A859B850E947E17DC01CB01888799875C
S1132240AA87BB871A82198215C020E030E040E2D9
S113225051E4688579858A859B850E949F19DC01F4
S1132260CB0188879987AA87BB8789819A81019640
S11322709A83898329813A8188899989281739071A
S113228024F3688579858A859B850E946218DC0120
S1132290CB019F838E838B818D3231F48C819D8120
S11322A091958195910902C08C819D819D838C8338
S11322B02E853F858C819D814D856C850E941410EF
S11322C08CE20E94800D288939898E819F8140E3A8
S11322D060E00E941410000061960FB6F894DEBF0F
S11322E00FBECDBFDF91CF911F910F91FF90EF9063
S11322F00895EF92FF920F931F93CF93DF93CDB77F
S1132300DEB72F970FB6F894DEBF0FBECDBF1B828A
S11323101C821D828FEF9FEF9F838E838FEF9FEF31
S113232099878887CE014A969F878E8719825EC2D5
S11323308981882F90E0288D398D820F931FFC01AD
S113234080818C3051F481E080930D0181E00E9402
S11323505B0C80E80E945B0C46C28981882F90E068
S1132360288D398D820F931FFC0180818A3071F58D
S113237080910D01813049F480910D018F5F80932C
S11323800D0180EC0E945B0C2EC280910D01823005
S113239049F480910D018F5F80930D0184E90E94BF
S11323A05B0C21C280910D01833049F480910D01B1
S11323B08F5F80930D0184ED0E945B0C14C281E059
S11323C080930D0180E80E945B0C0DC28981882FE7
S11323D090E0288D398D820F931FFC0180818D3010
S11323E061F480910D01882321F080EC0E945B0C44
S11323F0FAC180E80E945B0CF6C18981882F90E0C5
S1132400288D398D820F931FFC018081893069F4F6
S113241080E20E94800D80E20E94800D80E20E9492
S1132420800D80E20E94800DDEC18981882F90E0BA
S1132430288D398D820F931FFC0180818C3521F406
S113244084EA0E94800DCFC18981882F90E0288D75
S1132450398D820F931FFC018081853209F0B8C148
S11324608981882F90E00196288D398D820F931FE2
S1132470FC018081853239F489818F5F898385E20B
S11324800E94800DB0C189818F5F8A83B5C08A8123
S1132490882F90E0288D398D820F931FFC01808155
S11324A08B3259F08A81882F90E0288D398D820FE4
S11324B0931FFC0180818D3219F48BE28B8399C0C8
S11324C08A81882F90E0288D398D820F931FFC011B
S11324D080818E3219F48CE28D838BC08A81882F9F
S11324E090E0288D398D820F931FFC018081803309
S11324F0D1F48D818823A1F48C81803371F48E8191
S11325009F81880F991F9C01220F331F220F331FB5
S1132510820F931F9F838E836CC080E38C8369C07A
S11325201986188666C08A81882F90E0288D398D97
S1132530820F931FFC018081813308F45AC08A8181
S1132540882F90E0288D398D820F931FFC018081A4
S11325508A3308F04EC08D818C3231F58885998597
S1132560019611F41986188688859985880F991F14
S11325709C01220F331F220F331F820F931F998751
S113258088878A81882F90E0288D398D820F931F48
S1132590FC018081882F90E0C09728853985820FBF
S11325A0931F9987888725C08E819F81019611F496
S11325B01F821E828E819F81880F991F9C01220F8A
S11325C0331F220F331F820F931F9F838E838A81B1
S11325D0882F90E0288D398D820F931FFC01808114
S11325E0882F90E0C0972E813F81820F931F9F8395
S11325F08E838A818F5F8A838A81882F90E0288DD9
S1132600398D820F931FFC018081833669F18A81A1
S1132610882F90E0288D398D820F931FFC018081D3
S1132620883411F18A81882F90E0288D398D820FAA
S1132630931FFC0180818436B9F08A81882F90E051
S1132640288D398D820F931FFC018081863661F0BD
S11326508A81882F90E0288D398D820F931FFC0189
S11326608081833709F013CF8A8189838A81882FF7
S113267090E0288D398D820F931FFC018081833671
S113268069F48E859F859C012E5F3F4F3F872E877F
S1132690FC01808191810E94800D8EC08A81882FE7
S11326A090E0288D398D820F931FFC01808188343E
S11326B069F48E859F859C012E5F3F4F3F872E874F
S11326C0FC01808191810E94DE0F76C08A81882F6F
S11326D090E0288D398D820F931FFC018081843610
S11326E0A9F48E859F859C012E5F3F4F3F872E87DF
S11326F0FC01808191819B878A872E813F818A8515
S11327009B854C816B810E94141056C08A81882F4E
S113271090E0288D398D820F931FFC0180818636CD
S1132720C9F48E859F859C012C5F3F4F3F872E8780
S1132730FC0180819181A281B381488559852E81D4
S11327403F817A0189012C814B81BC01CD010E941A
S1132750C61032C08A81882F90E0288D398D820F6F
S1132760931FFC018081833739F58E859F859C01F9
S11327702E5F3F4F3F872E87FC01808191819D878B
S11327808C871A820EC08A81882F90E02C853D8523
S1132790820F931FFC0180810E94800D8A818F5FCC
S11327A08A838A81882F90E02C853D85820F931F30
S11327B0FC018081882339F71B821C821D828FEFE4
S11327C09FEF9F838E838FEF9FEF998788870BC03E
S11327D08981882F90E0288D398D820F931FFC0109
S11327E080810E94800D89818F5F89838981882FF0
S11327F090E0288D398D820F931FFC0180818823FE
S113280009F096CD00002F960FB6F894DEBF0FBEE8
S1132810CDBFDF91CF911F910F91FF90EF9008955D
S1132820CF93DF93CDB7DEB78CE790E025E4FC01CE
S113283020838AE790E026E8FC0120830000DF91F2
S1132840CF910895CF92DF92EF92FF92CF93DF93CF
S1132850CDB7DEB72E970FB6F894DEBF0FBECDBF4F
S11328608AE790E02AE730E0F90120812064FC0146
S1132870208300008AE790E0FC018081882F90E0AB
S113288080749927892BB1F788E790E0FC01808157
S113289091819A83898389819A81092E000CAA0BDC
S11328A0BB0BBC01CD010E949A18DC01CB012AE0CC
S11328B038E240EA5BE3BC01CD010E949F19DC01D0
S11328C0CB018B839C83AD83BE8320E030E44CE159
S11328D056E46B817C818D819E810E949F19DC016D
S11328E0CB01B05820E030E040EA50E4BC01CD0117
S11328F00E94F017DC01CB016C017D0120E030E087
S113290040EA50E46B817C818D819E810E94F017A6
S1132910DC01CB0120E030E040E85FE3BC01CD0105
S11329200E947E17DC01CB019C01AD01C701B601F9
S11329300E94F017DC01CB01BC01CD010E9462189A
S1132940DC01CB0198878F838F819885092E000C39
S1132950AA0BBB0BBC01CD010E949A18DC01CB0170
S113296020E030E44CE156E4BC01CD010E94F017B4
S1132970DC01CB01BC01CD010E945719DC01CB0164
S113298089879A87AB87BC8721EF3BEB46E859E3FD
S113299069857A858B859C850E949F19DC01CB0112
S11329A02DE03FEC4BE55BE3BC01CD010E947F17BA
S11329B0DC01CB016C017D0122E835ED4FE256E3E9
S11329C069857A858B859C850E949F19DC01CB01E2
S11329D029853A854B855C85BC01CD010E949F19F0
S11329E0DC01CB019C01AD01C701B6010E947F1738
S11329F0DC01CB016C017D012AE633E149E853E3B4
S1132A0069857A858B859C850E949F19DC01CB01A1
S1132A1029853A854B855C85BC01CD010E949F19AF
S1132A20DC01CB0129853A854B855C85BC01CD0150
S1132A300E949F19DC01CB019C01AD01C701B601C5
S1132A400E947F17DC01CB019C01AD0160E070E0C6
S1132A5080E89FE30E94F017DC01CB0123E333E914
S1132A6048E853E4BC01CD010E947E17DC01CB0190
S1132A70BC01CD010E946218DC01CB019E878D87C9
S1132A808D859E852E960FB6F894DEBF0FBECDBF02
S1132A90DF91CF91FF90EF90DF90CF900895CF9387
S1132AA0DF93CDB7DEB78AE290E02AE230E0F901A5
S1132AB020812068FC0120838AE290E02AE230E051
S1132AC0F90120812062FC01208384E290E024E269
S1132AD030E0F90120812860FC0120838BE290E042
S1132AE02BE230E0F90120812068FC01208385E29B
S1132AF090E025E230E0F90120812160FC0120838F
S1132B0085E290E025E230E0F90120812260FC01B9
S1132B10208385E290E025E230E0F9012081246001
S1132B20FC01208380EB90E022E4FC01208381EB14
S1132B3090E0FC01108283EB90E0FC01108282EBB8
S1132B4090E0FC0110828BE290E02BE230E0F9018E
S1132B5020812F7DFC0120830000DF91CF91089517
S1132B608F929F92AF92BF92CF92DF92EF92FF9299
S1132B70CF93DF93CDB7DEB76A970FB6F894DEBF75
S1132B800FBECDBF9A8F898F80E098EAA4EDB5E59A
S1132B908A839B83AC83BD838EE0E5EDF2E0DE01A6
S1132BA01B9601900D928A95E1F787E08E83898DBB
S1132BB09A8D892B09F494C019828CC06A817B8117
S1132BC08C819D810E9498186B017C01898D9A8D5E
S1132BD09C0140E050E088E691E0DC010E94AA1AE2
S1132BE0DC01CB01BC01CD010E949818DC01CB01B2
S1132BF026E636E646EE5DE3BC01CD010E94F01701
S1132C00DC01CB019C01AD01BC01CD010E947F1709
S1132C10DC01CB014C015D018981882F90E0880F94
S1132C20991F9E012F5F3F4F820F931F0A96FC014D
S1132C3080819181CC01A0E0B0E0BC01CD010E9473
S1132C409818DC01CB019C01AD01C501B4010E94BF
S1132C509F19DC01CB019C01AD01C701B6010E94A3
S1132C60F017DC01CB01BC01CD010E946918DC0125
S1132C70CB018F839887A987BA878F819885A98587
S1132C80BA858F3F9105A105B10508F58F81988517
S1132C90A985BA85892B8A2B8B2BC9F081EB90E00F
S1132CA029812F5FFC01208383EB90E02F81FC01BD
S1132CB0208382EB90E0FC0110828BE290E02BE217
S1132CC030E0F90120812F77FC01208316C089812F
S1132CD08F5F898399818E81981708F46FCF0DC017
S1132CE081EB90E0FC0110828BE290E02BE230E07B
S1132CF0F90120812068FC012083898D9A8D9093AD
S1132D00F9028093F80200006A960FB6F894DEBFC9
S1132D100FBECDBFDF91CF91FF90EF90DF90CF90AA
S1132D20BF90AF909F908F900895CF93DF93CDB7CE
S1132D30DEB765970FB6F894DEBF0FBECDBF9B8B91
S1132D408A8B7D8B6C8B2A893B898C899D8928177A
S1132D50390718F481E08B8302C08FEF8B838A8953
S1132D609B899A838983A5C089819A819093EC0277
S1132D708093EB024091EB025091EC029A01ADEC8E
S1132D80BCEC0E949B1A929582958F7089279F7044
S1132D90892764E1689F9001699F300D1124CA015D
S1132DA0821B930B892B19F483E70E94960380916D
S1132DB0EB029091EC020E94B01580E090E0A0EF4D
S1132DC0B1E48C839D83AE83BF8320E030E84BEB7A
S1132DD055E46C817D818E819F810E949F19DC0165
S1132DE0CB0188879987AA87BB8720E030E040E839
S1132DF05FE3688579858A859B850E94EB17882324
S1132E002CF481E090E09D878C873FC020E03FEF69
S1132E104FE757E4688579858A859B850E944A191E
S1132E2018164CF520E030E040E251E46C817D81DD
S1132E308E819F810E949F19DC01CB01BC01CD01D1
S1132E400E946918DC01CB019D878C870FC088E53F
S1132E5092E09F878E878E859F850197F1F79F87E4
S1132E608E878C859D8501979D878C878C859D8514
S1132E70892B69F714C0688579858A859B850E94AA
S1132E806918DC01CB019D878C878C859D85998B86
S1132E90888B888999890197F1F7998B888B8B8125
S1132EA0082E000C990B29813A81820F931F9A8373
S1132EB089838B81282F880F330B8C899D89280F58
S1132EC0391F89819A812817390759F08CE390E0DA
S1132ED0FC018081882F90E081709927892B09F467
S1132EE043CF83E70E949603000065960FB6F894DB
S1132EF0DEBF0FBECDBFDF91CF9108955058BB27E1
S1132F00AA270E9496170C9410190E94021938F0EF
S1132F100E94091920F039F49F3F19F426F40C9407
S1132F20FF180EF4E095E7FB0C94F918E92F0E94C2
S1132F30211958F3BA17620773078407950720F01D
S1132F4079F4A6F50C9443190EF4E0950B2EBA2FE0
S1132F50A02D0B01B90190010C01CA01A00111249B
S1132F60FF27591B99F0593F50F4503E68F11A1647
S1132F70F040A22F232F342F4427585FF3CF4695D8
S1132F8037952795A795F0405395C9F77EF41F16FA
S1132F90BA0B620B730B840BBAF09150A1F0FF0FC4
S1132FA0BB1F661F771F881FC2F70EC0BA0F621FB0
S1132FB0731F841F48F4879577956795B795F795A0
S1132FC09E3F08F0B0CF9395880F08F09927EE0F35
S1132FD09795879508950E94D51808F481E008957F
S1132FE00E9404180C9410190E94091958F00E94A8
S1132FF0021940F029F45F3F29F00C94F91851119B
S11330000C9444190C94FF180E94211968F3992315
S1133010B1F3552391F3951B550BBB27AA276217D0
S11330207307840738F09F5F5F4F220F331F441FDD
S1133030AA1FA9F335D00E2E3AF0E0E832D0915011
S11330405040E695001CCAF72BD0FE2F29D0660FFE
S1133050771F881FBB1F261737074807AB07B0E841
S113306009F0BB0B802DBF01FF2793585F4F3AF047
S11330709E3F510578F00C94F9180C9444195F3F65
S1133080E4F3983ED4F3869577956795B795F795CD
S11330909F5FC9F7880F911D9695879597F90895B5
S11330A0E1E0660F771F881FBB1F62177307840751
S11330B0BA0720F0621B730B840BBA0BEE1F88F760
S11330C0E09508950E9469186894B1110C9444190C
S11330D008950E94291988F09F5798F0B92F9927CD
S11330E0B751B0F0E1F0660F771F881F991F1AF0EF
S11330F0BA95C9F714C0B13091F00E944319B1E0F8
S113310008950C944319672F782F8827B85F39F0F6
S1133110B93FCCF3869577956795B395D9F73EF487
S113312090958095709561957F4F8F4F9F4F08952F
S1133130E89409C097FB3EF490958095709561954D
S11331407F4F8F4F9F4F9923A9F0F92F96E9BB2703
S11331509395F695879577956795B795F111F8CF7F
S1133160FAF4BB0F11F460FF1BC06F5F7F4F8F4FEA
S11331709F4F16C0882311F096E911C0772321F0E0
S11331809EE8872F762F05C0662371F096E8862F78
S113319070E060E02AF09A95660F771F881FDAF7CF
S11331A0880F9695879597F90895990F0008550FFC
S11331B0AA0BE0E8FEEF16161706E807F907C0F0B9
S11331C012161306E407F50798F0621B730B840BC1
S11331D0950B39F40A2661F0232B242B252B21F49B
S11331E008950A2609F4A140A6958FEF811D811D3B
S11331F0089597F99F6780E870E060E008959FEF75
S113320080EC089500240A94161617061806090679
S1133210089500240A941216130614060506089548
S1133220092E0394000C11F4882352F0BB0F40F4D0
S1133230BF2B11F460FF04C06F5F7F4F8F4F9F4F10
S1133240089557FD9058440F551F59F05F3F71F092
S11332504795880F97FB991F61F09F3F79F08795F9
S11332600895121613061406551FF2CF4695F1DF82
S113327008C0161617061806991FF1CF8695710512
S1133280610508940895E894BB2766277727CB0146
S113329097F908950E94D51808F48FEF089516F051
S11332A00C940C1A0C94FF1868940C94F9180E944E
S11332B02919A8F39923C1F3AEF3DF93CF931F9396
S11332C00F93FF92C92FDD2788232AF02197660FD9
S11332D0771F881FDAF720E030E040E85FEB9FE3D8
S11332E0883920F0803E38F021968F770E947F172E
S11332F0E8E6F0E004C00E947F17E5E9F0E00E94F0
S11333001A1A8B01BE01EC01FB2E6F5771097595DA
S1133310771F880B990B0E949A1828E132E741E342
S11333205FE30E94B219AF2D9801AE01FF900F9197
S11333301F91CF91DF910E9496170C9410190E944F
S1133340B2190C9410190E94021938F00E9409193C
S113335020F0952311F00C94F9180C94FF18112403
S11333600C9444190E94211970F3959FC1F3950F91
S113337050E0551F629FF001729FBB27F00DB11DF5
S1133380639FAA27F00DB11DAA1F649F6627B00D85
S1133390A11D661F829F2227B00DA11D621F739F6E
S11333A0B00DA11D621F839FA00D611D221F749F7C
S11333B03327A00D611D231F849F600D211D822FC3
S11333C0762F6A2F11249F5750409AF0F1F08823EA
S11333D04AF0EE0FFF1FBB1F661F771F881F915017
S11333E05040A9F79E3F510580F00C94F9180C94B5
S11333F044195F3FE4F3983ED4F386957795679537
S1133400B795F795E7959F5FC1F7FE2B880F911D40
S11334109695879597F908959F3F31F0915020F440
S1133420879577956795B795880F911D969587959C
S113343097F90895DF93CF931F930F93FF92EF9221
S1133440DF927B018C01689406C0DA2EEF010E94A2
S1133450B219FE01E894A5912591359145915591B4
S1133460A6F3EF010E949617FE019701A801DA94D2
S113347069F7DF90EF90FF900F911F91CF91DF914B
S11334800895DB018F939F930E94AA1ABF91AF9175
S1133490A29F800D911DA39F900DB29F900D1124AA
S11334A00895AA1BBB1B51E107C0AA1FBB1FA61787
S11334B0B70710F0A61BB70B881F991F5A95A9F7D9
S11334C080959095BC01CD01089597FB072E16F4C5
S11334D0009407D077FD09D00E94511A07FC05D04B
S11334E03EF4909581959F4F0895709561957F4F17
S11334F00895A1E21A2EAA1BBB1BFD010DC0AA1F31
S1133500BB1FEE1FFF1FA217B307E407F50720F048
S1133510A21BB30BE40BF50B661F771F881F991FC3
S11335201A9469F760957095809590959B01AC010C
S1133530BD01CF010895A29FB001B39FC001A39F15
S1133540700D811D1124911DB29F700D811D1124D8
S1133550911D08950E949B1AA59F900DB49F900DF4
S1133560A49F800D911D11240895DC01CB01FC0161
S1133570F999FECF06C0F2BDE1BDF89A319600B4C8
S11335800D9241505040B8F70895F999FECF92BD7D
S113359081BDF89A992780B50895DC01A40FB51F61
S11335A04150504048F0CB01840F951F2E910E944A
S11335B0DE1A41505040D0F70895262FF999FECFD6
S11335C092BD81BDF89A019700B4021639F01FBA72
S11335D020BD0FB6F894FA9AF99A0FBE0895F8949C
S10535E0FFCF17
S11335E200640008073200B00414001815010C54DA
S11335F265706C6F74613A202564256343000C4343
S113360261733A20202020202020202532643A258C
S11336123032643A25303264000C4361733A20201C
S11336222020202020202020202532643A253032F8
S113363264000A4F7461636B793A202020202020B1
S1133642202020253464000A0A25635374617274AD
S1133652202020202020202025634D656E75200027
S11336620A002563000A256353746F70000C2563F6
S1133672527963686C6F7374206F6D796C616E69D3
S1133682000A256344656C6B61206F6D796C616E11
S113369269000A25634E61636973742070726F66F0
S11336A2696C000A2563556C6F7A69742070726FB5
S11336B266696C000C4E6173746176656E69206F85
S11336C2746163656B000A7A61206D696E75747545
S11336D2000A537461726120686F646E6F74613A98
S11336E2253664000A4E6F76612020686F646E6F1F
S11336F274613A253664000C4E6173746176656EAA
S1133702692064656C6B79000A6F6D796C616E690E
S1133712205B48483A4D4D5D000A5374617279202A
S11337226361733A20202020202532643A25303206
S113373264000A4E6F767920206361733A20202058
S113374220202532643A25303264000C4E616374C1
S1133752656E692070726F66696C75000A25633143
S11337622E2025326468202532646D202534646F4E
S1133772742F6D000A2563322E20253264682025B9
S113378232646D202534646F742F6D000A2563330F
S11337922E2025326468202532646D202534646F1E
S11337A2742F6D000C556C6F7A656E692070726FA0
S11337B266696C750001000800200040008000006A
S10737C201000400FA
S9030000FC
