:100000000C9461000C9480000C94B0000C947E0061
:100010000C947E000C947E000C947E000C947E0068
:100020000C947E000C947E000C947E000C94B6011F
:100030000C947E000C947E000C947E000C947E0048
:100040000C9444020C947E000C947E000C947E0070
:100050000C947E000C947E000C947E000C947E0028
:100060000C947E000C947E0008000000BE9224498F
:10007000123EABAAAA2ABECDCCCC4C3E00000080DA
:10008000BEABAAAAAA3E00000000BF000000803F4D
:100090000000000000084178D3BB4387D1133D190D
:1000A0000E3CC3BD4282AD2B3E68EC8276BED98F3A
:1000B000E1A93E4C80EFFFBE01C4FF7F3F0000007E
:1000C000000011241FBECFEFD8E0DEBFCDBF12E08D
:1000D000A0E0B1E0E8E4F5E302C005900D92A43C95
:1000E000B107D9F722E0A4ECB2E001C01D92AA3D0D
:1000F000B207E1F70E9452010C94A21A0C9400007E
:100100001F920F9200905F000F9211242F933F9344
:100110004F935F936F937F938F939F93AF93BF930F
:10012000EF93FF93CF93DF93CDB7DEB70E943002FA
:1001300082E60E940A030000DF91CF91FF91EF91C8
:10014000BF91AF919F918F917F916F915F914F91EF
:100150003F912F910F9000925F000F901F90189584
:100160001F920F9200905F000F9211242F933F93E4
:100170004F935F936F937F938F939F93AF93BF93AF
:10018000EF93FF93CF93DF93CDB7DEB70E9430029A
:1001900089E290E0FC018081882F90E080719927AE
:1001A000892BB1F08091C402882369F48091C50243
:1001B0008F5F8093C5028091C5028530F8F08DE293
:1001C0000E940A031BC01092C4021092C50216C0FE
:1001D0008091C402882369F08091C5028F5F80936B
:1001E000C5028091C502853048F08BE20E940A0367
:1001F00005C081E08093C4021092C5020000DF9127
:10020000CF91FF91EF91BF91AF919F918F917F918E
:100210006F915F914F913F912F910F9000925F00EE
:100220000F901F901895CF93DF93CDB7DEB78BE279
:1002300090E02BE230E0F90120812460FC01208372
:1002400089E690E022E0FC0120838DE390E021E04C
:10025000FC0120838BE290E02BE230E0F901208169
:100260002061FC0120838BE290E02BE230E0F90179
:1002700020812860FC01208389E690E029E630E0B7
:10028000F90120812860FC0120838DE390E02DE3BB
:1002900030E0F90120812260FC0120830000DF9121
:1002A000CF910895CF93DF93CDB7DEB784E290E08E
:1002B000FC01108287E290E0FC0110828AE290E06B
:1002C000FC01108285E290E0FC01108288E290E05F
:1002D000FC0110828BE290E0FC0110820E94E81485
:1002E0000E9413010E943A0A0E94A9130E94171744
:1002F00078940E94B80283E70E940A030000FECFB0
:10030000CF93DF93CDB7DEB70E94A90180E890E0DC
:10031000FC01108288E890E02DE83BE5FC01318388
:1003200020838FE690E022E0FC0120830E949C0164
:100330000000DF91CF910895CF93DF93CDB7DEB763
:1003400081E890E02DE0FC0120830000DF91CF9157
:100350000895CF93DF93CDB7DEB781E890E028E032
:10036000FC0120830000DF91CF9108951F920F922E
:1003700000905F000F9211242F933F934F935F9350
:100380006F937F938F939F93AF93BF93EF93FF935D
:10039000CF93DF93CDB7DEB78091D702882381F565
:1003A0008091CD029091CE02892B49F08091CD02AF
:1003B0009091CE0201979093CE028093CD028091CE
:1003C000CD029091CE02892BD9F48091CB029091ED
:1003D000CC0260E070E00E942E1681E08093D7028C
:1003E0008091D3029091D402A091D502B091D6020F
:1003F0008093CB029093CC02A093CD02B093CE0217
:1004000083E70E940A030000DF91CF91FF91EF91F3
:10041000BF91AF919F918F917F916F915F914F911C
:100420003F912F910F9000925F000F901F901895B1
:10043000CF93DF93CDB7DEB784E490E0FC01108268
:1004400085E490E025E0FC0120838EE690E021E049
:10045000FC0120830E9430020000DF91CF910895BB
:10046000CF93DF93CDB7DEB71092CF021092D002B8
:100470001092D1021092D20286E490E0FC01108228
:100480000000DF91CF9108951F920F9200905F00BE
:100490000F9211242F933F934F935F936F937F930A
:1004A0008F939F93AF93BF93EF93FF93CF93DF937C
:1004B0001F92CDB7DEB783E089838091CF02909100
:1004C000D002A091D102B091D2020196A11DB11D1E
:1004D0008093CF029093D002A093D102B093D20226
:1004E0008981882F90E0A0E0B0E09C01AD0160E040
:1004F00076E38EE691E00E94F419DC01CB019C01C9
:10050000AD01012E12E156954795379527951A951D
:10051000D1F7102D8091CF029091D002A091D102FD
:10052000B091D202281739074A075B0759F40E9495
:1005300030028091CA02882329F01092CA0283E710
:100540000E940A0300000F90DF91CF91FF91EF917D
:10055000BF91AF919F918F917F916F915F914F91DB
:100560003F912F910F9000925F000F901F90189570
:10057000CF93DF93CDB7DEB71092CA0281E08093AC
:10058000D7021092D9021092D8020E9480010E94D4
:10059000180280E190E00E94781A8F3F41F44DE00C
:1005A00050E060E170E080E091E00E94801A4DE050
:1005B00050E060E170E080E091E00E94681A809174
:1005C0000001882F90E0880F991F880F991F8F5F77
:1005D0009E4FFC0180819181A281B3818093CB02E7
:1005E0009093CC02A093CD02B093CE028091CB0227
:1005F0009091CC02A091CD02B091CE028093D30213
:100600009093D402A093D502B093D6020000DF915C
:10061000CF910895CF93DF9300D000D01F92CDB734
:10062000DEB78D838091CA02882F90E082309105D9
:1006300009F4FCC08330910534F4009781F00197F0
:1006400009F492C036C28430910509F477C1843030
:1006500091050CF42FC1059709F4CDC12AC28D81F3
:10066000882F90E08D32910531F08236910589F026
:100670008B9709F01EC28091D702882309F472C0BB
:100680009091C60281E0992309F080E08093C60230
:100690006AC08091C602882309F050C08091D702B9
:1006A000813039F51092D7028BE290E02BE230E0F6
:1006B000F90120812260FC0120838091CB0290917E
:1006C000CC02A091CD02B091CE028093D302909340
:1006D000D402A093D502B093D6022091CB023091E0
:1006E000CC028091D8029091D902B9010E942E16B5
:1006F0003AC081E08093D7028BE290E02BE230E0B9
:10070000F90120812D7FFC0120838091CB02909103
:10071000CC0260E070E00E942E168091D30290918E
:10072000D402A091D502B091D6028093CB029093CF
:10073000CC02A093CD02B093CE0215C081E080938D
:10074000CA028091CB029091CC02A091CD02B091CF
:10075000CE028093D3029093D402A093D502B0939B
:10076000D60201C00000A5C18D81882F90E08D3296
:10077000910511F182369105D9F18B9709F099C154
:100780008091C702882F90E08130910549F0823036
:10079000910551F0892B61F481E08093C7020BC071
:1007A00082E08093C70207C083E08093C70203C042
:1007B0001092C7023AC039C08091C702882F90E0DA
:1007C0008130910549F08230910549F0892B59F427
:1007D00083E08093C7020BC01092C70208C081E07B
:1007E0008093C70204C082E08093C7021EC01DC070
:1007F0008091C702882F90E08130910549F08230C6
:10080000910551F0892B61F482E08093CA020CC0FB
:1008100083E08093CA0208C084E08093CA0204C0C7
:1008200085E08093CA0200C0000043C18D81882FFB
:1008300090E08D329105B9F08236910521F18B97C8
:1008400009F037C18091D3029091D4028C3291404B
:1008500068F58091D3029091D40201969093D402CE
:100860008093D30223C08091D3029091D402892B2C
:10087000F9F08091D3029091D40201979093D40221
:100880008093D30215C01092CA028091D302909136
:10089000D402A091D502B091D6028093CB0290935E
:1008A000CC02A093CD02B093CE0203C0000001C1E0
:1008B0000000FFC08D81882F90E08D329105B9F046
:1008C0008236910521F18B9709F0F3C08091D50212
:1008D0009091D602803A9C4868F58091D50290911B
:1008E000D602CC969093D6028093D50223C08091F5
:1008F000D5029091D602892BF9F08091D502909182
:10090000D602CC979093D6028093D50215C0109250
:10091000CA028091D3029091D402A091D502B091E5
:10092000D6028093CB029093CC02A093CD02B093D9
:10093000CE0203C00000BDC00000BBC08D81882F67
:1009400090E08D329105D9F08236910569F18B974F
:1009500009F0AFC08091C802882F90E0009719F08D
:10096000019729F008C081E08093C80207C082E0A7
:100970008093C80203C01092C8023CC03BC0809163
:10098000C802882F90E0009719F0019729F007C05E
:1009900082E08093C80207C01092C80204C081E0C0
:1009A0008093C80227C026C01092CA028091C80254
:1009B0008093000180910001882F90E0880F991F9B
:1009C000880F991F8F5F9E4FFC0180819181A281CA
:1009D000B3818093CB029093CC02A093CD02B093CD
:1009E000CE024DE050E060E170E080E091E00E94D6
:1009F000801A00005EC08D81882F90E08D329105B5
:100A0000D9F08236910569F18B9709F051C0809138
:100A1000C902882F90E0009719F0019729F008C0CB
:100A200081E08093C90207C082E08093C90203C0BD
:100A30001092C9023DC03CC08091C902882F90E04D
:100A4000009719F0019729F007C082E08093C9024E
:100A500007C01092C90204C081E08093C90228C077
:100A600027C01092CA028091C90280930001809130
:100A70000001882F90E0880F991F880F991F9C0113
:100A80002F5F3E4F8091CB029091CC02A091CD027E
:100A9000B091CE02F90180839183A283B3834DE0AC
:100AA00050E060E170E080E091E00E94801A000078
:100AB00000008091CA02882F90E08230910509F4ED
:100AC00020C28330910534F4009781F0019709F436
:100AD000B3C1C7C48430910509F4D5C284309105EF
:100AE0000CF44EC2059709F4C5C3BBC48091CD0276
:100AF0009091CE0280319E4008F45FC08091CD027B
:100B00009091CE0220E13EE0B9010E94041AAC01AE
:100B10009A01A9E8B8E80E944E1AFC01F695E795FB
:100B2000F295E295EF70EF27FF70EF272CE32E9FF1
:100B3000C0012F9F900D1124FA01E81BF90B809141
:100B4000CD029091CE0220E13EE0B9010E94041A4C
:100B50009C01A9E8B8E80E944E1A9C013695279599
:100B6000329522952F7023273F7023278091CD0245
:100B70009091CE0240E15EE0BA010E94041ACB01DE
:100B80004F2F4F934E2F4F93432F4F932F93292F38
:100B90002F938F938EE091E0892F8F938EE091E0D9
:100BA0008F930E9412114DB75EB7485F5F4F0FB62B
:100BB000F894DEBF0FBECDBF4DC08091CD029091A5
:100BC000CE0220E13EE0B9010E94041AAC019A0174
:100BD000A9E8B8E80E944E1AFC01F695E795F2954F
:100BE000E295EF70EF27FF70EF272CE32E9FC001F7
:100BF0002F9F900D1124FA01E81BF90B8091CD0273
:100C00009091CE0220E13EE0B9010E94041A9C01BD
:100C1000A9E8B8E80E944E1A969587959295829514
:100C20008F7089279F7089272F2F2F932E2F2F9317
:100C3000292F2F938F938EE191E0892F8F938EE14F
:100C400091E08F930E9412110F900F900F900F90D0
:100C50000F900F900E94BB131F922FED2F93292FFF
:100C60002F938F938CE291E0892F8F938CE291E008
:100C70008F930E9412110F900F900F900F900F9072
:100C80000F908091CB029091CC02292F2F938F93BC
:100C90008AE391E0892F8F938AE391E08F930E94FA
:100CA00012110F900F900F900F908091D702882F04
:100CB00090E0019741F58091C602813019F428E057
:100CC00030E002C020E230E08091C602882319F4AF
:100CD00088E090E002C080E290E0432F4F932F9392
:100CE000292F2F938F9387E491E0892F8F9387E4A7
:100CF00091E08F930E9412110F900F900F900F9020
:100D00000F900F9098C080E691E0892F8F9380E636
:100D100091E08F930E9412110F900F902091D502B5
:100D20003091D6028091CD029091CE02F901E81B5C
:100D3000F90BCF01CC01A0E0B0E089839A83AB83AB
:100D4000BC8389819A81AB81BC81892B8A2B8B2BB7
:100D500009F44FC089819A81AB81BC81880F991FAA
:100D6000AA1FBB1F880F991FAA1FBB1F9C01AD01A3
:100D7000220F331F441F551F220F331F441F551FBF
:100D8000820F931FA41FB51F89839A83AB83BC83F3
:100D90008091D5029091D6029C0140E050E089817B
:100DA0009A81AB81BC81BC01CD010E942C1ADA0171
:100DB000C90189839A83AB83BC831BC01F9289E0DE
:100DC0008F9382E691E0892F8F9382E691E08F9353
:100DD0000E9412110F900F900F900F9089819A81AD
:100DE000AB81BC810197A109B10989839A83AB8347
:100DF000BC8389819A81AB81BC81892B8A2B8B2B07
:100E0000E9F68091C602882319F488E090E002C0D8
:100E100080E290E0292F2F938F9385E691E0892F30
:100E20008F9385E691E08F930E9412110F900F909F
:100E30000F900F90000015C38091C702882319F40A
:100E400088E090E002C080E290E0292F2F938F93FA
:100E50008DE691E0892F8F938DE691E08F930E942C
:100E600012110F900F900F900F908091C702813058
:100E700019F488E090E002C080E290E0292F2F93DF
:100E80008F9381E891E0892F8F9381E891E08F9390
:100E90000E9412110F900F900F900F908091C70237
:100EA000823019F488E090E002C080E290E0292FBF
:100EB0002F938F9382E991E0892F8F9382E991E0BC
:100EC0008F930E9412110F900F900F900F908091AE
:100ED000C702833019F488E090E002C080E290E01D
:100EE000292F2F938F9383EA91E0892F8F9383EAA1
:100EF00091E08F930E9412110F900F900F900F901E
:100F0000B0C284EB91E0892F8F9384EB91E08F93B3
:100F10000E9412110F900F9086EC91E0892F8F9311
:100F200086EC91E08F930E9412110F900F908091A8
:100F3000CB029091CC02292F2F938F9381ED91E0DA
:100F4000892F8F9381ED91E08F930E9412110F9062
:100F50000F900F900F908091D3029091D402292F7F
:100F60002F938F9384EE91E0892F8F9384EE91E0FD
:100F70008F930E9412110F900F900F900F9071C2DB
:100F800087EF91E0892F8F9387EF91E08F930E94F5
:100F900012110F900F9088E092E0892F8F9388E0D4
:100FA00092E08F930E9412110F900F908091CD02CA
:100FB0009091CE0220E13EE0B9010E94041A9C010A
:100FC000A9E8B8E80E944E1A9C01369527953295FB
:100FD00022952F7023273F7023278091CD02909177
:100FE000CE0240E15EE0BA010E94041ACB01432F19
:100FF0004F932F93292F2F938F9389E192E0892F7D
:101000008F9389E192E08F930E9412110F900F90BD
:101010000F900F900F900F908091D5029091D60273
:1010200020E13EE0B9010E94041A9C01A9E8B8E859
:101030000E944E1A9C0136952795329522952F7065
:1010400023273F7023278091D5029091D60240E15B
:101050005EE0BA010E94041ACB01432F4F932F93F5
:10106000292F2F938F9382E392E0892F8F9382E32E
:1010700092E08F930E9412110F900F900F900F909B
:101080000F900F90EEC18BE492E0892F8F938BE449
:1010900092E08F930E9412110F900F90E091010146
:1010A000F0910201809103019091040120E13EE062
:1010B000B9010E94041A9C01A9E8B8E80E944E1ADE
:1010C0009C0136952795329522952F7023273F70E6
:1010D0002327809103019091040140E15EE0BA0171
:1010E0000E94041ACB01AC018091C802882319F434
:1010F00088E090E002C080E290E06F2F6F936E2F47
:101100006F93632F6F932F93252F2F93242F2F935C
:10111000292F2F938F938CE592E0892F8F938CE565
:1011200092E08F930E9412114DB75EB7465F5F4FFA
:101130000FB6F894DEBF0FBECDBFE0910501F09170
:101140000601809107019091080120E13EE0B9017C
:101150000E94041A9C01A9E8B8E80E944E1A9C015A
:1011600036952795329522952F7023273F70232798
:10117000809107019091080140E15EE0BA010E9470
:10118000041ACB01AC018091C802813019F488E0C7
:1011900090E002C080E290E06F2F6F936E2F6F930C
:1011A000632F6F932F93252F2F93242F2F93292F66
:1011B0002F938F9384E792E0892F8F9384E792E0B7
:1011C0008F930E9412118DB79EB70A960FB6F894AE
:1011D000DEBF0FBECDBFE0910901F0910A01809101
:1011E0000B0190910C0120E13EE0B9010E94041A2C
:1011F0009C01A9E8B8E80E944E1A9C0136952795F3
:10120000329522952F7023273F70232780910B0161
:1012100090910C0140E15EE0BA010E94041ACB01FA
:10122000AC018091C802823019F488E090E002C0DD
:1012300080E290E06F2F6F936E2F6F93632F6F9309
:101240002F93252F2F93242F2F93292F2F938F9375
:101250008CE892E0892F8F938CE892E08F930E9424
:101260001211EDB7FEB73A960FB6F894DEBF0FBE77
:10127000CDBFF7C084EA92E0892F8F9384EA92E091
:101280008F930E9412110F900F90E0910101F09145
:101290000201809103019091040120E13EE0B90137
:1012A0000E94041A9C01A9E8B8E80E944E1A9C0109
:1012B00036952795329522952F7023273F70232747
:1012C000809103019091040140E15EE0BA010E9427
:1012D000041ACB01AC018091C902882319F488E07B
:1012E00090E002C080E290E06F2F6F936E2F6F93BB
:1012F000632F6F932F93252F2F93242F2F93292F15
:101300002F938F938CE592E0892F8F938CE592E059
:101310008F930E9412114DB75EB7465F5F4F0FB6B5
:10132000F894DEBF0FBECDBFE0910501F09106013C
:10133000809107019091080120E13EE0B9010E94EF
:10134000041A9C01A9E8B8E80E944E1A9C0136953F
:101350002795329522952F7023273F702327809160
:1013600007019091080140E15EE0BA010E94041A71
:10137000CB01AC018091C902813019F488E090E082
:1013800002C080E290E06F2F6F936E2F6F93632FF8
:101390006F932F93252F2F93242F2F93292F2F9344
:1013A0008F9384E792E0892F8F9384E792E08F9365
:1013B0000E9412118DB79EB70A960FB6F894DEBF41
:1013C0000FBECDBFE0910901F0910A0180910B01A0
:1013D00090910C0120E13EE0B9010E94041A9C01A9
:1013E000A9E8B8E80E944E1A9C01369527953295D7
:1013F00022952F7023273F70232780910B01909116
:101400000C0140E15EE0BA010E94041ACB01AC017C
:101410008091C902823019F488E090E002C080E235
:1014200090E06F2F6F936E2F6F93632F6F932F93B7
:10143000252F2F93242F2F93292F2F938F938CE8D1
:1014400092E0892F8F938CE892E08F930E94121183
:10145000EDB7FEB73A960FB6F894DEBF0FBECDBF1C
:10146000000000000F900F900F900F900F90DF91F1
:10147000CF910895CF93DF93CDB7DEB72E970FB6F8
:10148000F894DEBF0FBECDBF8AE290E02AE230E0E2
:10149000F90120812160FC0120838BE290E02BE2A6
:1014A00030E0F90120812E7FFC01208387E290E06B
:1014B00027E230E0F90120812061FC01208388E2ED
:1014C00090E028E230E0F90120812F7EFC012083AA
:1014D00087E290E027E230E0F90120812160FC0101
:1014E000208387E290E027E230E0F901208122604A
:1014F000FC01208387E290E027E230E0F9012081BF
:101500002460FC01208387E290E027E230E0F901CB
:1015100020812860FC01208388E290E028E230E00E
:10152000F90120812E7FFC01208388E290E028E2EF
:1015300030E0F90120812D7FFC01208388E290E0DA
:1015400028E230E0F90120812B7FFC01208388E232
:1015500090E028E230E0F9012081277FFC01208320
:1015600082E090E00E94810B88E290E028E230E087
:10157000F90120812061FC01208380E090E0A0E05F
:10158000B0E489839A83AB83BC8320E030E84BEBE3
:1015900055E469817A818B819C810E945219DC011A
:1015A000CB018D839E83AF83B88720E030E040E895
:1015B0005FE36D817E818F8198850E949E178823CD
:1015C0002CF481E090E09A8789873FC020E03FEFCC
:1015D0004FE757E46D817E818F8198850E94FD18C9
:1015E00018164CF520E030E040E251E469817A8140
:1015F0008B819C810E945219DC01CB01BC01CD0181
:101600000E941C18DC01CB019A8789870FC088E5EE
:1016100092E09C878B878B859C850197F1F79C874F
:101620008B8789859A8501979A87898789859A8585
:10163000892B69F714C06D817E818F8198850E9406
:101640001C18DC01CB019A87898789859A859E873A
:101650008D878D859E850197F1F79E878D8788E21E
:1016600090E028E230E0F90120812F7EFC01208308
:1016700088E20E94F40B8CE00E94F40B81E00E944F
:10168000F40B80E40E94F40B80E10E94190D88E1C4
:101690000E94190D8CE10E94190D8EE10E94190D16
:1016A0008CE10E94190D88E10E94190D80E10E94D1
:1016B000190D80E00E94190D80E00E94190D80E054
:1016C0000E94190D8FE10E94190D8FE10E94190DE2
:1016D0008FE10E94190D8FE10E94190D80E00E9498
:1016E000190D80E00E94190D80E80E94F40B0000A3
:1016F0002E960FB6F894DEBF0FBECDBFDF91CF910F
:101700000895CF93DF931F92CDB7DEB78983898188
:10171000882F90E088709927892B51F088E290E01B
:1017200028E230E0F90120812160FC01208309C01A
:1017300088E290E028E230E0F90120812E7FFC0170
:1017400020838981882F90E084709927892B51F01C
:1017500088E290E028E230E0F90120812260FC017B
:10176000208309C088E290E028E230E0F90120817E
:101770002D7FFC0120838981882F90E0827099273A
:10178000892B51F088E290E028E230E0F9012081D5
:101790002460FC01208309C088E290E028E230E068
:1017A000F90120812B7FFC0120838981882F90E023
:1017B00081709927892B51F088E290E028E230E08F
:1017C000F90120812860FC01208309C088E290E0B3
:1017D00028E230E0F9012081277FFC01208300000E
:1017E0000F90DF91CF910895CF93DF93CDB7DEB700
:1017F0006D970FB6F894DEBF0FBECDBF8D8F8D8D68
:1018000082958F700E94810B88E290E028E230E0A0
:10181000F90120812061FC01208380E090E0A0E4B8
:10182000B0E489839A83AB83BC8320E030E84BEB40
:1018300055E469817A818B819C810E945219DC0177
:10184000CB018B8B9C8BAD8BBE8B20E030E040E8D6
:101850005FE36B897C898D899E890E949E1788230E
:101860002CF481E090E0988F8F8B3FC020E03FEF19
:101870004FE757E46B897C898D899E890E94FD180A
:1018800018164CF520E030E040E251E469817A819D
:101890008B819C810E945219DC01CB01BC01CD01DE
:1018A0000E941C18DC01CB01988F8F8B0FC088E53C
:1018B00092E09A8F898F898D9A8D0197F1F79A8F8F
:1018C000898F8F89988D0197988F8F8B8F89988DAD
:1018D000892B69F714C06B897C898D899E890E9448
:1018E0001C18DC01CB01988F8F8B8F89988D9C8F72
:1018F0008B8F8B8D9C8D0197F1F79C8F8B8F88E25E
:1019000090E028E230E0F90120812F7EFC01208365
:101910008D8D0E94810B88E290E028E230E0F90191
:1019200020812061FC01208380E090E0A0E4B0E40D
:101930008D839E83AF83B88720E030E84BEB55E47E
:101940006D817E818F8198850E945219DC01CB01C7
:1019500089879A87AB87BC8720E030E040E85FE367
:1019600069857A858B859C850E949E1788232CF437
:1019700081E090E09E878D873FC020E03FEF4FE7FA
:1019800057E469857A858B859C850E94FD18181619
:101990004CF520E030E040E251E46D817E818F81A2
:1019A00098850E945219DC01CB01BC01CD010E9437
:1019B0001C18DC01CB019E878D870FC088E592E063
:1019C000988B8F878F8598890197F1F7988B8F87F0
:1019D0008D859E8501979E878D878D859E85892B18
:1019E00069F714C069857A858B859C850E941C18CF
:1019F000DC01CB019E878D878D859E859A8B898B97
:101A000089899A890197F1F79A8B898B88E290E00E
:101A100028E230E0F90120812F7EFC0120830000C4
:101A20006D960FB6F894DEBF0FBECDBFDF91CF919C
:101A30000895CF93DF93CDB7DEB7C154D1090FB668
:101A4000F894DEBF0FBECDBF9E012F5B3F4FF90163
:101A500080838BE290E02BE230E0F901208121606D
:101A6000FC012083CE018F5B9F4FFC01808182951A
:101A70008F700E94810B88E290E028E230E0F9014B
:101A800020812061FC01208380E090E0A0E2B2E4AC
:101A900089839A83AB83BC8320E030E040E051E44B
:101AA00069817A818B819C810E945219DC01CB0172
:101AB0008DA39EA3AFA3B8A720E030E040EC50E494
:101AC00069817A818B819C810E945219DC01CB0152
:101AD00089A79AA7ABA7BCA720E030E040E85FE366
:101AE0006DA17EA18FA198A50E949E1788231CF44A
:101AF00081E08DA7B2C020E03FEF4FE757E469A532
:101B00007AA58BA59CA50E94FD1818160CF07BC029
:101B100020E030E04AE754E469817A818B819C813E
:101B20000E94A317DC01CB018EA79FA7A8ABB9AB7E
:101B300020E030E84BEB55E46EA57FA588A999A974
:101B40000E945219DC01CB018AAB9BABACABBDABA5
:101B500020E030E040E85FE36AA97BA98CA99DA959
:101B60000E949E1788232CF481E090E09FAB8EABFF
:101B70003FC020E03FEF4FE757E46AA97BA98CA95B
:101B80009DA90E94FD1818164CF520E030E040E2B7
:101B900051E46EA57FA588A999A90E945219DC017C
:101BA000CB01BC01CD010E941C18DC01CB019FAB15
:101BB0008EAB0FC088E592E099AF88AF88AD99AD44
:101BC0000197F1F799AF88AF8EA99FA901979FABB5
:101BD0008EAB8EA99FA9892B69F73FC06AA97BA903
:101BE0008CA99DA90E941C18DC01CB019FAB8EAB78
:101BF0008EA99FA99BAF8AAF8AAD9BAD0197F1F7E4
:101C00009BAF8AAF2AC020E030E04FE753E46DA1DC
:101C10007EA18FA198A50E94FD181816ACF469A5A5
:101C20007AA58BA59CA50E941C18DC01CB019DAF59
:101C30008CAF8CAD9DAD9FAF8EAF8EAD9FAD01973C
:101C4000F1F79FAF8EAF1CC06DA17EA18FA198A5AB
:101C50000E941C18DC01CB018DA72DA5CE01805C54
:101C60009F4FFC012083CE01805C9F4FFC0180814F
:101C7000282F2A95F1F7CE01805C9F4FFC0120832D
:101C800088E290E028E230E0F90120812F7EFC011B
:101C90002083CE018F5B9F4FFC0180810E94810BCE
:101CA00088E290E028E230E0F90120812061FC0127
:101CB000208380E090E0A0E2B2E48D839E83AF8336
:101CC000B88720E030E040E051E46D817E818F8173
:101CD00098850E945219DC01CB0189879A87AB87CE
:101CE000BC8720E030E040EC50E46D817E818F8144
:101CF00098850E945219DC01CB018D879E87AF87A2
:101D0000B88B20E030E040E85FE369857A858B8519
:101D10009C850E949E1788231CF481E0898BB2C0A9
:101D200020E03FEF4FE757E46D857E858F859889EA
:101D30000E94FD1818160CF07BC020E030E04AE746
:101D400054E46D817E818F8198850E94A317DC0108
:101D5000CB018A8B9B8BAC8BBD8B20E030E84BEBAF
:101D600055E46A897B898C899D890E945219DC011E
:101D7000CB018E8B9F8BA88FB98F20E030E040E89D
:101D80005FE36E897F89888D998D0E949E178823D5
:101D90002CF481E090E09B8F8A8F3FC020E03FEFE2
:101DA0004FE757E46E897F89888D998D0E94FD18D1
:101DB00018164CF520E030E040E251E46A897B8956
:101DC0008C899D890E945219DC01CB01BC01CD0197
:101DD0000E941C18DC01CB019B8F8A8F0FC088E505
:101DE00092E09D8F8C8F8C8D9D8D0197F1F79D8F4B
:101DF0008C8F8A8D9B8D01979B8F8A8F8A8D9B8D6F
:101E0000892B69F73FC06E897F89888D998D0E94E3
:101E10001C18DC01CB019B8F8A8F8A8D9B8D9F8F35
:101E20008E8F8E8D9F8D0197F1F79F8F8E8F2AC099
:101E300020E030E04FE753E469857A858B859C8507
:101E40000E94FD181816ACF46D857E858F859889E3
:101E50000E941C18DC01CB0199A388A388A199A139
:101E60009BA38AA38AA19BA10197F1F79BA38AA3B5
:101E70000FC069857A858B859C850E941C18DC01C2
:101E8000CB01898B89898CA38CA18A95F1F78CA3CE
:101E900088E290E028E230E0F90120812F7EFC0109
:101EA00020838BE290E02BE230E0F90120812E7F4D
:101EB000FC0120830000CF5BDF4F0FB6F894DEBF3C
:101EC0000FBECDBFDF91CF910895CF93DF931F92C7
:101ED000CDB7DEB7898389818A3018F48981805D26
:101EE00002C08981895C0F90DF91CF910895CF93D3
:101EF000DF9300D000D000D0CDB7DEB79E838D83B6
:101F00001A8219821CC08D819E81892F9927829502
:101F10008F709C838B838D819E8182959295907F1B
:101F20009827807F98279E838D838B810E94650FE1
:101F30000E94190D89819A8101969A8389838981EA
:101F40009A81049700F3000026960FB6F894DEBF3E
:101F50000FBECDBFDF91CF910895CF93DF93CDB763
:101F6000DEB76B970FB6F894DEBF0FBECDBF9F8B69
:101F70008E8B688F498F3B8F2A8F8E899F899D8397
:101F80008C8380E18A8381E08B83888D882349F06C
:101F90008E899F89992314F08BE201C08DE20E9403
:101FA000190D898D882309F01B828A8D9B8D9923B9
:101FB00014F08A8D8A838E899F8999231CF49195C8
:101FC000819591099F8B8E8B198220C08981282F42
:101FD000880F330B8E899F894AE050E0BA010E9436
:101FE000181A40E3480FCE010696820F931FFC019A
:101FF00040838E899F892AE030E0B9010E94181A37
:10200000CB019F8B8E8B89818F5F898399818A8198
:102010009817E4F28981815089833DC08981082E17
:10202000000C990B9E012A5F3F4F820F931FFC010A
:1020300080818033E9F48B818823D1F08A8D9B8D58
:10204000019629F18C819D81892B71F48981082E5B
:10205000000C990B9C012F5F3F4F8A81082E000CCA
:10206000990B2817390799F080E20E94190D0FC0CB
:102070001B828981082E000C990B9E012A5F3F4F1D
:10208000820F931FFC0180810E94190D01C0000086
:10209000898181508983898188230CF0BFCF8B810E
:1020A000882319F080E30E94190D00006B960FB68B
:1020B000F894DEBF0FBECDBFDF91CF910895EF92B0
:1020C000FF920F931F93CF93DF93CDB7DEB7619746
:1020D0000FB6F894DEBF0FBECDBF688779878A87B9
:1020E0009B874C872D871F870E87F98AE88A8BE2AA
:1020F0008B8388899989019621F483E090E0998BFC
:10210000888B20E030E0A901688579858A859B85E8
:102110000E949E1788235CF488859985AA85BB85D3
:10212000B05888879987AA87BB878DE28B8368859B
:1021300079858A859B850E941518DC01CB019D83DA
:102140008C838C819D81092E000CAA0BBB0BBC01DA
:10215000CD010E944D18DC01CB019C01AD016885C9
:1021600079858A859B850E943117DC01CB018887A0
:102170009987AA87BB871A82198215C020E030E0B0
:1021800040E251E4688579858A859B850E945219D1
:10219000DC01CB0188879987AA87BB8789819A81CF
:1021A00001969A83898329813A8188899989281798
:1021B000390724F3688579858A859B850E941518DF
:1021C000DC01CB019F838E838B818D3231F48C8136
:1021D0009D8191958195910902C08C819D819D83FE
:1021E0008C832E853F858C819D814D856C850E94D9
:1021F000AD0F8CE20E94190D288939898E819F814B
:1022000040E360E00E94AD0F000061960FB6F894C5
:10221000DEBF0FBECDBFDF91CF911F910F91FF9019
:10222000EF900895EF92FF920F931F93CF93DF9358
:10223000CDB7DEB72F970FB6F894DEBF0FBECDBF78
:102240001B821C821D828FEF9FEF9F838E838FEFF7
:102250009FEF99878887CE014A969F878E8719823C
:102260005EC28981882F90E0288D398D820F931F5F
:10227000FC0180818C3051F481E080930D0181E07C
:102280000E94F40B80E80E94F40B46C28981882FDB
:1022900090E0288D398D820F931FFC0180818A3058
:1022A00071F580910D01813049F480910D018F5FAE
:1022B00080930D0180EC0E94F40B2EC280910D01E1
:1022C000823049F480910D018F5F80930D0184E984
:1022D0000E94F40B21C280910D01833049F480915A
:1022E0000D018F5F80930D0184ED0E94F40B14C2E9
:1022F00081E080930D0180E80E94F40B0DC289817A
:10230000882F90E0288D398D820F931FFC018081EA
:102310008D3061F480910D01882321F080EC0E94C2
:10232000F40BFAC180E80E94F40BF6C18981882F72
:1023300090E0288D398D820F931FFC0180818930B8
:1023400069F480E20E94190D80E20E94190D80E27A
:102350000E94190D80E20E94190DDEC18981882F2B
:1023600090E0288D398D820F931FFC0180818C3580
:1023700021F484EA0E94190DCFC18981882F90E051
:10238000288D398D820F931FFC018081853209F0E1
:10239000B8C18981882F90E00196288D398D820FF0
:1023A000931FFC018081853239F489818F5F898395
:1023B00085E20E94190DB0C189818F5F8A83B5C003
:1023C0008A81882F90E0288D398D820F931FFC0120
:1023D00080818B3259F08A81882F90E0288D398D49
:1023E000820F931FFC0180818D3219F48BE28B8365
:1023F00099C08A81882F90E0288D398D820F931F94
:10240000FC0180818E3219F48CE28D838BC08A812D
:10241000882F90E0288D398D820F931FFC018081D9
:102420008033D1F48D818823A1F48C81803371F4C1
:102430008E819F81880F991F9C01220F331F220FCD
:10244000331F820F931F9F838E836CC080E38C8326
:1024500069C01986188666C08A81882F90E0288D09
:10246000398D820F931FFC018081813308F45AC09B
:102470008A81882F90E0288D398D820F931FFC016F
:1024800080818A3308F04EC08D818C3231F5888589
:102490009985019611F41986188688859985880F83
:1024A000991F9C01220F331F220F331F820F931F8E
:1024B000998788878A81882F90E0288D398D820FAF
:1024C000931FFC018081882F90E0C0972885398573
:1024D000820F931F9987888725C08E819F810196DF
:1024E00011F41F821E828E819F81880F991F9C018B
:1024F000220F331F220F331F820F931F9F838E8360
:102500008A81882F90E0288D398D820F931FFC01DE
:102510008081882F90E0C0972E813F81820F931F8A
:102520009F838E838A818F5F8A838A81882F90E040
:10253000288D398D820F931FFC018081833669F1CC
:102540008A81882F90E0288D398D820F931FFC019E
:102550008081883411F18A81882F90E0288D398D0F
:10256000820F931FFC0180818436B9F08A81882F05
:1025700090E0288D398D820F931FFC018081863673
:1025800061F08A81882F90E0288D398D820F931F0A
:10259000FC018081833709F013CF8A8189838A8186
:1025A000882F90E0288D398D820F931FFC01808148
:1025B000833669F48E859F859C012E5F3F4F3F8750
:1025C0002E87FC01808191810E94190D8EC08A8125
:1025D000882F90E0288D398D820F931FFC01808118
:1025E000883469F48E859F859C012E5F3F4F3F871D
:1025F0002E87FC01808191810E94770F76C08A81AD
:10260000882F90E0288D398D820F931FFC018081E7
:102610008436A9F48E859F859C012E5F3F4F3F87AE
:102620002E87FC01808191819B878A872E813F8143
:102630008A859B854C816B810E94AD0F56C08A8133
:10264000882F90E0288D398D820F931FFC018081A7
:102650008636C9F48E859F859C012C5F3F4F3F874E
:102660002E87FC0180819181A281B38148855985A3
:102670002E813F817A0189012C814B81BC01CD01E2
:102680000E945F1032C08A81882F90E0288D398D9A
:10269000820F931FFC018081833739F58E859F85DA
:1026A0009C012E5F3F4F3F872E87FC0180819181E7
:1026B0009D878C871A820EC08A81882F90E02C8596
:1026C0003D85820F931FFC0180810E94190D8A8134
:1026D0008F5F8A838A81882F90E02C853D85820FC9
:1026E000931FFC018081882339F71B821C821D8285
:1026F0008FEF9FEF9F838E838FEF9FEF9987888760
:102700000BC08981882F90E0288D398D820F931F0F
:10271000FC0180810E94190D89818F5F89838981E5
:10272000882F90E0288D398D820F931FFC018081C6
:10273000882309F096CD00002F960FB6F894DEBFDF
:102740000FBECDBFDF91CF911F910F91FF90EF9002
:102750000895CF93DF93CDB7DEB78CE790E025E403
:10276000FC0120838AE790E026E8FC01208300003A
:10277000DF91CF910895CF92DF92EF92FF92CF93A6
:10278000DF93CDB7DEB72E970FB6F894DEBF0FBE3E
:10279000CDBF8AE790E02AE730E0F901208120648C
:1027A000FC01208300008AE790E0FC018081882FF3
:1027B00090E080749927892BB1F788E790E0FC01BD
:1027C000808191819A83898389819A81092E000C65
:1027D000AA0BBB0BBC01CD010E944D18DC01CB0143
:1027E0002AE038E240EA5BE3BC01CD010E945219C5
:1027F000DC01CB018B839C83AD83BE8320E030E47E
:102800004CE156E46B817C818D819E810E9452193E
:10281000DC01CB01B05820E030E040EA50E4BC01DC
:10282000CD010E94A317DC01CB016C017D0120E0EA
:1028300030E040EA50E46B817C818D819E810E9472
:10284000A317DC01CB0120E030E040E85FE3BC01EE
:10285000CD010E943117DC01CB019C01AD01C70104
:10286000B6010E94A317DC01CB01BC01CD010E947F
:102870001518DC01CB0198878F838F819885092EED
:10288000000CAA0BBB0BBC01CD010E944D18DC0152
:10289000CB0120E030E44CE156E4BC01CD010E94C4
:1028A000A317DC01CB01BC01CD010E940A19DC0198
:1028B000CB0189879A87AB87BC8721EF3BEB46E842
:1028C00059E369857A858B859C850E945219DC01C4
:1028D000CB012DE03FEC4BE55BE3BC01CD010E9459
:1028E0003217DC01CB016C017D0122E835ED4FE2AE
:1028F00056E369857A858B859C850E945219DC0197
:10290000CB0129853A854B855C85BC01CD010E94B0
:102910005219DC01CB019C01AD01C701B6010E9437
:102920003217DC01CB016C017D012AE633E149E875
:1029300053E369857A858B859C850E945219DC0159
:10294000CB0129853A854B855C85BC01CD010E9470
:102950005219DC01CB0129853A854B855C85BC0188
:10296000CD010E945219DC01CB019C01AD01C701D0
:10297000B6010E943217DC01CB019C01AD0160E081
:1029800070E080E89FE30E94A317DC01CB0123E302
:1029900033E948E853E4BC01CD010E943117DC0162
:1029A000CB01BC01CD010E941518DC01CB019E8733
:1029B0008D878D859E852E960FB6F894DEBF0FBE4F
:1029C000CDBFDF91CF91FF90EF90DF90CF90089532
:1029D000CF93DF93CDB7DEB78AE290E02AE230E012
:1029E000F90120812068FC0120838AE290E02AE23C
:1029F00030E0F90120812062FC01208384E290E034
:102A000024E230E0F90120812860FC0120838BE280
:102A100090E02BE230E0F90120812068FC01208366
:102A200085E290E025E230E0F90120812160FC019F
:102A3000208385E290E025E230E0F90120812260E8
:102A4000FC01208385E290E025E230E0F90120815D
:102A50002460FC01208380EB90E022E4FC012083D1
:102A600081EB90E0FC01108283EB90E0FC0110828E
:102A700082EB90E0FC0110828BE290E02BE230E0F0
:102A8000F90120812F7DFC0120830000DF91CF918F
:102A900008958F929F92AF92BF92CF92DF92EF9262
:102AA000FF92CF93DF93CDB7DEB76A970FB6F89456
:102AB000DEBF0FBECDBF9A8F898F80E098EAA4ED6C
:102AC000B5E58A839B83AC83BD838EE0E5EBF2E0C2
:102AD000DE011B9601900D928A95E1F787E08E83C7
:102AE000898D9A8D892B09F494C019828CC06A81D2
:102AF0007B818C819D810E944B186B017C01898DAB
:102B00009A8D9C0140E050E088E691E0DC010E9453
:102B10005D1ADC01CB01BC01CD010E944B18DC0128
:102B2000CB0126E636E646EE5DE3BC01CD010E9410
:102B3000A317DC01CB019C01AD01BC01CD010E94BA
:102B40003217DC01CB014C015D018981882F90E0B7
:102B5000880F991F9E012F5F3F4F820F931F0A9688
:102B6000FC0180819181CC01A0E0B0E0BC01CD01ED
:102B70000E944B18DC01CB019C01AD01C501B401E1
:102B80000E945219DC01CB019C01AD01C701B601C5
:102B90000E94A317DC01CB01BC01CD010E941C18CF
:102BA000DC01CB018F839887A987BA878F819885AD
:102BB000A985BA858F3F9105A105B10508F58F81DB
:102BC0009885A985BA85892B8A2B8B2BC9F081EB37
:102BD00090E029812F5FFC01208383EB90E02F811F
:102BE000FC01208382EB90E0FC0110828BE290E0FC
:102BF0002BE230E0F90120812F77FC01208316C001
:102C000089818F5F898399818E81981708F46FCFAE
:102C10000DC081EB90E0FC0110828BE290E02BE292
:102C200030E0F90120812068FC012083898D9A8D94
:102C30009093D9028093D80200006A960FB6F89458
:102C4000DEBF0FBECDBFDF91CF91FF90EF90DF9041
:102C5000CF90BF90AF909F908F900895CF93DF93C8
:102C6000CDB7DEB765970FB6F894DEBF0FBECDBF08
:102C70009B8B8A8B7D8B6C8B2A893B898C899D8968
:102C80002817390718F481E08B8302C08FEF8B83FC
:102C90008A899B899A838983A5C089819A81909327
:102CA000CC028093CB024091CB025091CC029A018E
:102CB000ADECBCEC0E944E1A929582958F708927DC
:102CC0009F70892764E1689F9001699F300D1124EE
:102CD000CA01821B930B892B19F483E70E940A0314
:102CE0008091CB029091CC020E94491580E090E047
:102CF000A0EFB1E48C839D83AE83BF8320E030E8F6
:102D00004BEB55E46C817D818E819F810E9452192D
:102D1000DC01CB0188879987AA87BB8720E030E058
:102D200040E85FE3688579858A859B850E949E17C8
:102D300088232CF481E090E09D878C873FC020E0C1
:102D40003FEF4FE757E4688579858A859B850E9428
:102D5000FD1818164CF520E030E040E251E46C819B
:102D60007D818E819F810E945219DC01CB01BC01C3
:102D7000CD010E941C18DC01CB019D878C870FC000
:102D800088E592E09F878E878E859F850197F1F772
:102D90009F878E878C859D8501979D878C878C85E5
:102DA0009D85892B69F714C0688579858A859B85FF
:102DB0000E941C18DC01CB019D878C878C859D852A
:102DC000998B888B888999890197F1F7998B888BE2
:102DD0008B81082E000C990B29813A81820F931F59
:102DE0009A8389838B81282F880F330B8C899D8947
:102DF000280F391F89819A812817390759F08CE3E8
:102E000090E0FC018081882F90E081709927892BC8
:102E100009F443CF83E70E940A03000065960FB6CA
:102E2000F894DEBF0FBECDBFDF91CF910895CF9351
:102E3000DF93CDB7DEB78AE290E02AE230E0F90115
:102E400020812260FC0120838BE290E02BE230E0C5
:102E5000F90120812D7FFC0120830000DF91CF91BB
:102E600008955058BB27AA270E9449170C94C318ED
:102E70000E94B51838F00E94BC1820F039F49F3F2A
:102E800019F426F40C94B2180EF4E095E7FB0C94B8
:102E9000AC18E92F0E94D41858F3BA1762077307C9
:102EA0008407950720F079F4A6F50C94F6180EF433
:102EB000E0950B2EBA2FA02D0B01B90190010C014A
:102EC000CA01A0011124FF27591B99F0593F50F462
:102ED000503E68F11A16F040A22F232F342F4427BA
:102EE000585FF3CF469537952795A795F0405395B2
:102EF000C9F77EF41F16BA0B620B730B840BBAF082
:102F00009150A1F0FF0FBB1F661F771F881FC2F7EC
:102F10000EC0BA0F621F731F841F48F48795779500
:102F20006795B795F7959E3F08F0B0CF9395880FBA
:102F300008F09927EE0F9795879508950E948818B5
:102F400008F481E008950E94B7170C94C3180E94FA
:102F5000BC1858F00E94B51840F029F45F3F29F0E2
:102F60000C94AC1851110C94F7180C94B2180E94E0
:102F7000D41868F39923B1F3552391F3951B550B9E
:102F8000BB27AA2762177307840738F09F5F5F4F3C
:102F9000220F331F441FAA1FA9F335D00E2E3AF07B
:102FA000E0E832D091505040E695001CCAF72BD093
:102FB000FE2F29D0660F771F881FBB1F26173707E4
:102FC0004807AB07B0E809F0BB0B802DBF01FF2716
:102FD00093585F4F3AF09E3F510578F00C94AC182F
:102FE0000C94F7185F3FE4F3983ED4F386957795F9
:102FF0006795B795F7959F5FC9F7880F911D9695CF
:10300000879597F90895E1E0660F771F881FBB1F2A
:10301000621773078407BA0720F0621B730B840BD7
:10302000BA0BEE1F88F7E09508950E941C1868946B
:10303000B1110C94F71808950E94DC1888F09F577E
:1030400098F0B92F9927B751B0F0E1F0660F771FCC
:10305000881F991F1AF0BA95C9F714C0B13091F0C2
:103060000E94F618B1E008950C94F618672F782F97
:103070008827B85F39F0B93FCCF386957795679587
:10308000B395D9F73EF490958095709561957F4FF3
:103090008F4F9F4F0895E89409C097FB3EF4909599
:1030A0008095709561957F4F8F4F9F4F9923A9F021
:1030B000F92F96E9BB279395F695879577956795B0
:1030C000B795F111F8CFFAF4BB0F11F460FF1BC0F4
:1030D0006F5F7F4F8F4F9F4F16C0882311F096E987
:1030E00011C0772321F09EE8872F762F05C0662335
:1030F00071F096E8862F70E060E02AF09A95660FEE
:10310000771F881FDAF7880F9695879597F90895A6
:10311000990F0008550FAA0BE0E8FEEF16161706E8
:10312000E807F907C0F012161306E407F50798F050
:10313000621B730B840B950B39F40A2661F0232B69
:10314000242B252B21F408950A2609F4A140A695E5
:103150008FEF811D811D089597F99F6780E870E0CA
:1031600060E008959FEF80EC089500240A941616FD
:10317000170618060906089500240A941216130665
:10318000140605060895092E0394000C11F48823F3
:1031900052F0BB0F40F4BF2B11F460FF04C06F5F0F
:1031A0007F4F8F4F9F4F089557FD9058440F551FE5
:1031B00059F05F3F71F04795880F97FB991F61F0B9
:1031C0009F3F79F087950895121613061406551F30
:1031D000F2CF4695F1DF08C0161617061806991F9C
:1031E000F1CF86957105610508940895E894BB2791
:1031F00066277727CB0197F908950E94881808F46D
:103200008FEF089516F00C94BF190C94B2186894BF
:103210000C94AC180E94DC18A8F39923C1F3AEF308
:10322000DF93CF931F930F93FF92C92FDD2788233E
:103230002AF02197660F771F881FDAF720E030E029
:1032400040E85FEB9FE3883920F0803E38F021961C
:103250008F770E943217E8E6F0E004C00E94321730
:10326000E5E9F0E00E94CD198B01BE01EC01FB2ED7
:103270006F5771097595771F880B990B0E944D1830
:1032800028E132E741E35FE30E946519AF2D980121
:10329000AE01FF900F911F91CF91DF910E944917CE
:1032A0000C94C3180E9465190C94C3180E94B51899
:1032B00038F00E94BC1820F0952311F00C94AC1843
:1032C0000C94B21811240C94F7180E94D41870F3BF
:1032D000959FC1F3950F50E0551F629FF001729FBB
:1032E000BB27F00DB11D639FAA27F00DB11DAA1FCA
:1032F000649F6627B00DA11D661F829F2227B00D17
:10330000A11D621F739FB00DA11D621F839FA00DA1
:10331000611D221F749F3327A00D611D231F849FF1
:10332000600D211D822F762F6A2F11249F57504048
:103330009AF0F1F088234AF0EE0FFF1FBB1F661FC3
:10334000771F881F91505040A9F79E3F510580F08C
:103350000C94AC180C94F7185F3FE4F3983ED4F348
:10336000869577956795B795F795E7959F5FC1F730
:10337000FE2B880F911D9695879597F908959F3F8D
:1033800031F0915020F4879577956795B795880F20
:10339000911D9695879597F90895DF93CF931F9385
:1033A0000F93FF92EF92DF927B018C01689406C02D
:1033B000DA2EEF010E946519FE01E894A59125918E
:1033C000359145915591A6F3EF010E944917FE01F1
:1033D0009701A801DA9469F7DF90EF90FF900F91C1
:1033E0001F91CF91DF910895DB018F939F930E94EE
:1033F0005D1ABF91AF91A29F800D911DA39F900D6B
:10340000B29F900D11240895AA1BBB1B51E107C068
:10341000AA1FBB1FA617B70710F0A61BB70B881F64
:10342000991F5A95A9F780959095BC01CD010895F3
:1034300097FB072E16F4009407D077FD09D00E9461
:10344000041A07FC05D03EF4909581959F4F08958E
:10345000709561957F4F0895A1E21A2EAA1BBB1BA0
:10346000FD010DC0AA1FBB1FEE1FFF1FA217B30750
:10347000E407F50720F0A21BB30BE40BF50B661F66
:10348000771F881F991F1A9469F76095709580952A
:1034900090959B01AC01BD01CF010895A29FB001A1
:1034A000B39FC001A39F700D811D1124911DB29F78
:1034B000700D811D1124911D08950E944E1AA59F23
:1034C000900DB49F900DA49F800D911D112408951F
:1034D000DC01CB01FC01F999FECF06C0F2BDE1BDD4
:1034E000F89A319600B40D9241505040B8F70895C3
:1034F000F999FECF92BD81BDF89A992780B50895BC
:10350000DC01A40FB51F4150504048F0CB01840F9F
:10351000951F2E910E94911A41505040D0F7089566
:10352000262FF999FECF92BD81BDF89A019700B47C
:10353000021639F01FBA20BD0FB6F894FA9AF99A1C
:083540000FBE0895F894FFCFBF
:1035480000640008073200B00414001815010C25A7
:103558003032643A253032643A25303264000C2522
:103568003032643A25303264202020002020202088
:10357800202020253364256343000A2020202020B2
:10358800202020253464000A0A256353746172746C
:10359800202020202020202025634D656E752000E6
:1035A8000A002563000A256353746F70000C2563B5
:1035B800527963686C6F7374206F6D796C616E6992
:1035C800000A256344656C6B61206F6D796C616ED0
:1035D80069000A25634E61636973742070726F66AF
:1035E800696C000A2563556C6F7A69742070726F74
:1035F80066696C000C4E6173746176656E69206F44
:10360800746163656B000A7A61206D696E75747503
:10361800000A537461726120686F646E6F74613A56
:10362800253664000A4E6F76612020686F646E6FDD
:1036380074613A253664000C4E6173746176656E68
:10364800692064656C6B79000A6F6D796C616E69CD
:10365800205B48483A4D4D5D000A537461727920E9
:103668006361733A20202020202532643A253032C5
:1036780064000A4E6F767920206361733A20202017
:1036880020202532643A25303264000C4E61637480
:10369800656E692070726F66696C75000A25633102
:1036A8002E2025326468202532646D202534646F0D
:1036B800742F6D000A2563322E2025326468202578
:1036C80032646D202534646F742F6D000A256333CE
:1036D8002E2025326468202532646D202534646FDD
:1036E800742F6D000C556C6F7A656E692070726F5F
:1036F80066696C7500010008002000400080000029
:0437080001000400B8
:00000001FF
